:020000040800F2
:100000000000052421190008391800083B180008D1
:100010003D1800083F1800084118000800000000C3
:100020000000000000000000000000000197000830
:100030004318000800000000919700082590000870
:100040007119000871190008711900087119000868
:100050007119000871190008711900087119000858
:100060007119000871190008711900087119000848
:100070007119000871190008711900087119000838
:100080007119000871190008711900087119000828
:100090007119000871190008711900087119000818
:1000A0007119000871190008711900087119000808
:1000B00071190008711900087119000871190008F8
:1000C00071190008711900087119000871190008E8
:1000D00071190008711900087119000871190008D8
:1000E000711900087119000800000000711900085A
:1000F00071190008451800087119000871190008E5
:1001000071190008711900087119000871190008A7
:1001100071190008711900085118000871190008B8
:100120007119000871190008711900087119000887
:100130007119000871190008711900087119000877
:1001400000000000000000000000000000000000AF
:100150007119000871190008711900087119000857
:100160007119000871190008711900087119000847
:100170007119000871190008711900087119000837
:100180007119000871190008711900087119000827
:100190007119000871190008711900087119000817
:1001A0005D180008711900086918000800000000B7
:1001B00071190008711900087119000871190008F7
:1001C000711900087119000800000000000000000B
:1001D000000000000000000071190008000000008D
:1001E000000000000000000000000000000000000F
:1001F00000000000000000007119000871190008DB
:100200007119000871190008000000007119000838
:100210007119000871190008711900087119000896
:1002200071190008000000007119000800000000AA
:100230007119000871190008000000007119000808
:100240007119000871190008711900087119000866
:100250007119000871190008711900087119000856
:100260007119000871190008711900087119000846
:1002700071190008711900087119000800000000C8
:100280007119000871190008711900087119000826
:1002900000000000711900087119000871190008A8
:1002A0007119000871190008711900087119000806
:1002B00071190008711900087119000871190008F6
:0C02C0007119000871190008711900087C
:1002D00010B5054C237833B9044B13B10448AFF380
:1002E00000800123237010BD2401002400000000C1
:1002F00090C1010808B5034B1BB103490348AFF394
:10030000008008BD000000002801002490C1010801
:1003100001F0FF01102A2BDB10F0070F08D010F8B6
:10032000013B013A8B422DD010F0070F42B3F6D1BA
:10033000F0B441EA012141EA014122F007047FF0D3
:1003400000070023F0E80256083C85EA010586EA2A
:10035000010685FA47F5A3FA87F586FA47F6A5FA66
:1003600087F68EB9EED1F0BC01F0FF0102F0070272
:1003700032B110F8013B013A83EA010313B1F8D11D
:100380000020704701387047002D06BF35460338FE
:10039000073815F0010F07D1013015F4807F02BF37
:1003A000013015F4C03F0130F0BC0138704700BF88
:1003B00081F0004102E000BF83F0004330B54FEA16
:1003C00041044FEA430594EA050F08BF90EA020F83
:1003D0001FBF54EA000C55EA020C7FEA645C7FEA16
:1003E000655C00F0E2804FEA5454D4EB5555B8BF39
:1003F0006D420CDD2C4480EA020281EA030382EAAA
:10040000000083EA010180EA020281EA0303362D3B
:1004100088BF30BD11F0004F4FEA01314FF4801C0E
:100420004CEA113102D0404261EB410113F0004F20
:100430004FEA03334CEA133302D0524263EB4303D7
:1004400094EA050F00F0A780A4F10104D5F1200E75
:100450000DDB02FA0EFC22FA05F2801841F10001D0
:1004600003FA0EF2801843FA05F359410EE0A5F1A4
:1004700020050EF1200E012A03FA0EFC28BF4CF0D5
:10048000020C43FA05F3C01851EBE37101F000458B
:1004900007D54FF0000EDCF1000C7EEB00006EEB98
:1004A0000101B1F5801F1BD3B1F5001F0CD3490822
:1004B0005FEA30004FEA3C0C04F101044FEA445279
:1004C00012F5800F80F09A80BCF1004F08BF5FEA00
:1004D000500C50F1000041EB045141EA050130BDE0
:1004E0005FEA4C0C404141EB0101013C28BFB1F5F2
:1004F000801FE9D291F0000F04BF01460020B1FA3D
:1005000081F308BF2033A3F10B03B3F120020CDA0F
:100510000C3208DD02F1140CC2F10C0201FA0CF0ED
:1005200021FA02F10CE002F11402D8BFC2F1200C52
:1005300001FA02F120FA0CFCDCBF41EA0C01904008
:10054000E41AA2BF01EB0451294330BD6FEA040451
:100550001F3C1CDA0C340EDC04F11404C4F120023C
:1005600020FA04F001FA02F340EA030021FA04F34E
:1005700045EA030130BDC4F10C04C4F1200220FAA5
:1005800002F001FA04F340EA0300294630BD21FAE3
:1005900004F0294630BD94F0000F83F4801306BFA9
:1005A00081F480110134013D4EE77FEA645C18BF9D
:1005B0007FEA655C29D094EA050F08BF90EA020F34
:1005C00005D054EA000C04BF1946104630BD91EA2C
:1005D000030F1EBF0021002030BD5FEA545C05D12F
:1005E0004000494128BF41F0004130BD14F580046E
:1005F0003CBF01F5801130BD01F0004545F0FE41E2
:1006000041F470014FF0000030BD7FEA645C1ABF16
:10061000194610467FEA655C1CBF0B46024650EA4D
:10062000013406BF52EA033591EA030F41F4002179
:1006300030BD00BF90F0000F04BF0021704730B5FF
:100640004FF4806404F132044FF000054FF00001D4
:1006500050E700BF90F0000F04BF0021704730B595
:100660004FF4806404F1320410F0004548BF40426A
:100670004FF000013EE700BF42004FEAE2014FEABF
:1006800031014FEA02701FBF12F07F4393F07F4F9A
:1006900081F06051704732F07F4208BF704793F09D
:1006A0007F4F04BF41F40021704730B54FF46074B0
:1006B00001F0004521F000411CE700BF50EA0102B3
:1006C00008BF704730B54FF000050AE050EA01025C
:1006D00008BF704730B511F0004502D5404261EBCC
:1006E00041014FF4806404F132045FEA915C3FF40D
:1006F000D8AE4FF003025FEADC0C18BF03325FEAAA
:10070000DC0C18BF033202EBDC02C2F1200300FA5A
:1007100003FC20FA02F001FA03FE40EA0E0021FA7F
:1007200002F11444BDE600BF014900200AF050B9AF
:10073000611D000808B5642008F0F7FCFBE7000025
:1007400010B59CB04C22002109A81AF033FD2022DC
:10075000002101A81AF02EFD042006F019FD002347
:1007600000931E4B9A6922F440429A619A6902F4FE
:1007700040420092009A9A699104FCD5184A0024DC
:10078000302109A8936A23F0030343F00203936224
:1007900001224FF480331B94CDE909230223CDE9D4
:1007A00012331493CDE917330C23CDE91512CDE99B
:1007B000193406F02BFD03213F23082201A80394DE
:1007C000CDE901314023CDE904234FF48062069343
:1007D000CDE9072307F018F81CB010BD00480258F7
:1007E0000044025800B5AFB0902200210AA81AF0C8
:1007F000E1FC4FF00072052350218020CDE9012358
:100800000223CDE90313CDE905330023CDE9070326
:100810000993202301A8139307F07CFA2FB05DF809
:1008200004FB0000074B002283ED000A064B186012
:1008300041F28833B3FBF0F0044B1860044B1A60AC
:10084000704700BF080000240400002414000024A6
:100850004001002408B50C21074808F033FB0C21A7
:10086000064808F02FFB0021054808F02BFB05483F
:10087000BDE8084007F0F2BF047000243C6E00247D
:100880000C6F0024B87000242DE98048A3B010221A
:100890000021012515A800241AF08CFC1C2704F067
:1008A000AFFD4FF01051D84B15A8ADF854500326AA
:1008B000CDE91613D54B189304F0C4FD4FF0E04377
:1008C00015A88DF85F401693ADF862408DF855502D
:1008D0008DF85C7004F0B6FD022315A88DF85F60FA
:1008E0008DF8553016238DF85C3040F20113ADF8C9
:1008F000623004F0A7FD4FF0104315A88DF85F405B
:100900001693ADF8624004248DF855608DF85C7044
:1009100004F098FD192315A88DF855408DF85C302A
:100920008DF85F608DF8625004F08CFD204604F075
:1009300077FDB74B5A6912F4003211D1BFF34F8FD4
:10094000BFF36F8FC3F85022BFF34F8FBFF36F8F8A
:100950005A6942F400325A61BFF34F8FBFF36F8F71
:10096000AB4A536913F4803323D1C2F88430BFF308
:100970004F8FD2F8803043F6E074C3F3C900C3F35D
:100980004E335B0103EA0406014646EA81750139EC
:10099000C2F86052F9D2203B13F1200FF2D1BFF31D
:1009A0004F8F536943F480335361BFF34F8FBFF3CD
:1009B0006F8F04F081FC0024FFF7C2FE0126FFF7D1
:1009C00011FF1422002115A81AF0F4FB914B4FF4EB
:1009D00000419148D3F8E0204FF480674FF00C09B4
:1009E0008E4D42F002024FF005084FF0180B4FF009
:1009F000040AC3F8E020D3F8E02002F002020092DB
:100A0000009AD3F8E02042F04002C3F8E020D3F887
:100A1000E02002F040020192019AD3F8E02042F077
:100A20000802C3F8E020D3F8E02002F008020292A6
:100A3000029AD3F8E02042F01002C3F8E020D3F885
:100A4000E02002F010020392039AD3F8E02042F073
:100A50000102C3F8E020D3F8E02002F00102049282
:100A6000049AD3F8E02042F08002C3F8E020D3F8E3
:100A7000E02002F080020592059AD3F8E02042F0CF
:100A80000402C3F8E020D3F8E02002F0040206924A
:100A9000069AD3F8E02042F02002C3F8E0200022BA
:100AA000D3F8E03003F020030793079B04F0A2FF84
:100AB00000224FF480615A4804F09CFF01220C216F
:100AC000584804F097FF4FF4004315A95248CDE968
:100AD0001536CDE9174404F001FE15A95048CDE9BB
:100AE0001576CDE9174404F0F9FD032315A94D4807
:100AF00018931796CDE9159604F0F0FD4A484B4A35
:100B0000848002600662C0E9054404F0C3FC484BDF
:100B100048484FF44032C0E90264C0E9003204F0B2
:100B200014FD3422214615A81AF044FB424A28211C
:100B3000352040F2152C40F2352EAC862C6185F81C
:100B40003640C5E900240922C5E905120B22C5E992
:100B5000070240F21B122846C5E909C240F21D12E5
:100B6000C5E90244C5E90BE205F098FBFF204FF40C
:100B7000F0714FF488721C9702271594ADF88440E9
:100B80008DF88640CDE91A044FF0E040CDE91F1200
:100B9000CDE91D80CDE91614284615A9274D4FF043
:100BA0002008CDE91826224605F043FC5A46214686
:100BB00015A81AF0FFFA224A2846AC606C632C6430
:100BC000C5E9002A4FF08072C5E903280822C5E96B
:100BD0000574C5E90974C5E90E24C5E90744C5E9EA
:100BE0000B4405F0A9FD4FF0011215A928461892F3
:100BF00002F57F021796199241F28832CDE9156607
:100C000006F024F81EE000BF1200000301000101FD
:100C100000ED00E00044025800180258586F00240C
:100C2000000C025800080258E86E0024004C0258DC
:100C3000001000525070002400100050886E0024F4
:100C400000500052284605F0EDFD40F2011220460A
:100C50008F4DADF8382003F08DFF0EA9204604F02B
:100C600079F8204603F04EFF5A46214615A81AF09F
:100C7000A1FA102221460AA81AF09CFA2146142251
:100C80000EA81AF097FA834A2846AC60EC63C5E9CF
:100C9000002A4FF08062C5E905A4C5E9032B4FF097
:100CA000805A17224FF0030BC5E90BA24FF4C8720C
:100CB0004FF0800AC5E909742A64C5E90744C5E90B
:100CC0000D44CDE9084405F037FD734A15A92846BF
:100CD000189202F57F021797199241F28832CDE9F6
:100CE000157705F0B3FF062341F288320AA928469A
:100CF0006027CDE90AB3CDE90C4605F0F5FD4FF4C8
:100D0000405341F288320EA910934FF00053284609
:100D10000E94129347F27F0B0F94119605F00AFE82
:100D20000DEB08012846089405F01CFF1C22214603
:100D30000EA85A4D0C94CDE90A441AF03BFA34221D
:100D4000214615A81AF036FA554B2846C5F80880F2
:100D50006C61C5F818A0C5E90034C5E903B407F013
:100D600015FF0AA928460C94CDE90A4408F0ACF80E
:100D70004A460EA9284610941494CDE90E76CDE982
:100D8000124407F079FF4FF4005315A9284619942F
:100D90001D942194CDE91A344FF00073CDE9154428
:100DA000CDE91E34CDE9174408F0E0F8284600F0FC
:100DB00089FC3C4D1C22214615A81094CDE90E4417
:100DC0001AF0F8F9384B28462C61C5F818A0C5E987
:100DD0000034C5E9028B07F0D9FE0EA928460E940F
:100DE000109408F071F84A4615A9284617941994EA
:100DF000CDE9157607F040FF284600F063FC2B4D47
:100E00001C22214615A81094CDE90E441AF0D2F9FF
:100E1000274B28462C61C5F818A0C5E90034C5E960
:100E2000028B07F0B3FE0EA928460E94109408F02A
:100E30004BF8224615A9284617941994CDE9157642
:100E400007F01AFF284600F03DFC1A481A4B846050
:100E50008461C0E900344EF2FF03C0E9033407F0B7
:100E600065FE00F086FDFFF7F5FC08F0E9F8134A8F
:100E70002146134808F010F9124B134A2146186016
:100E8000124808F009F9124B186008F0EBF8FEE779
:100E90000471002400A0005202000100047000242C
:100EA000000001403C6E0024000800400C6F00244C
:100EB000000C0040B87000240020004028C2010847
:100EC00035070008386E002404C2010877190008AD
:100ED000007000240368404A93422DE9F0412DED53
:100EE000048B70D13D4B3E4DD3ED009A3D4BF5EE5A
:100EF000409AD3F800803C4BF1EE10FA1F683B4B50
:100F00001E6857D03A4BB6EE009A2C6893ED008AD3
:100F1000DFED387AB8EE488A374B28EE278A07EE9D
:100F2000904A0134F8EE677A28EE278AD3ED007AEA
:100F3000324B28EE278AD3ED008AF8EE688AB0EEAD
:100F4000480A19F0E9FFF0EE497A20EE290AE0EEAE
:100F5000097A9FED2B0A38EE000A68EEA77AFCEEBC
:100F6000E77AC8ED107A19F0D7FFF0EE497A29EE4A
:100F7000800AE0EE097A9FED230A38EE000A68EE57
:100F8000A77AFCEEE77AC7ED107A19F0C5FF29EED3
:100F9000800A1D4A2C60A0EE099A1268944228EE3D
:100FA000899ABCEEC99A86ED0D9A0AD8BDEC048BDD
:100FB000BDE8F0810023C8F840303B6473632B60C8
:100FC000F4E70023FBE7114A9342EFD1BDEC048B19
:100FD000BDE8F04104F09EB9002000400800002464
:100FE00040010024047000243C6E00240C6F002497
:100FF00004000024DB0FC940100000240C00002472
:10100000920A0640920A8640140000240010004014
:10101000704700000A4B82B00F216FF00100D3F837
:10102000F42042F00202C3F8F4200022D3F8F43096
:1010300003F002030193019B02B004F0A1B900BFC9
:1010400000440258026882B0094B9A420DD1A3F5C0
:101050000063D3F8E02042F40022C3F8E020D3F884
:10106000E03003F400230193019B02B0704700BFFE
:10107000004C02580F4B07B502689A4217D10E4B2D
:1010800005215A20D3F8D42042F01002C3F8D4200E
:101090000022D3F8D43003F010030193019B04F035
:1010A0006FF95A2003B05DF804EB04F09BB903B06C
:1010B0005DF804FB00100052004402582DE9F04195
:1010C000BAB004461422002108A81AF073F8B4221A
:1010D00000210DA81AF06EF82268774B9A4240F072
:1010E000E8804FF0005319211E200D934FF49073A8
:1010F000CDE916130223CDE918334FF44063CDE94F
:101100001A0300230DA8CDE91C3306F003FE08B135
:10111000FFF77EFF694B002402260325D3F8E42065
:101120000E2708A9664842F008024FF05808C3F895
:10113000E420D3F8E42002F008020092009AD3F8E9
:10114000E02042F00202C3F8E020D3F8E02002F0F1
:1011500002020192019AD3F8E02042F00802C3F89B
:10116000E020D3F8E02002F008020292029AD3F8BD
:10117000E02042F01002C3F8E020D3F8E02002F0B3
:1011800010020392039AD3F8E02042F00102C3F860
:10119000E020D3F8E02002F001020492049AD3F890
:1011A000E02042F04002C3F8E020D3F8E02002F053
:1011B00040020592059AD3F8E02042F08002C3F87D
:1011C000E020D3F8E02002F080020692069AD3F8DD
:1011D000E02042F00402C3F8E020D3F8E0300C979E
:1011E00003F004030793079B40F20333CDE90A455C
:1011F000CDE9083604F072FA492308A931480C9762
:10120000CDE90836CDE90A4504F068FA4BF6030348
:1012100008A92D480C97CDE90836CDE90A4504F018
:101220005DFA4FF4807308A92848CDE908360D23EC
:10123000CDE90A450C9304F051FA4FF4814308A913
:1012400023480C97CDE90836CDE90A4504F046FA63
:1012500048F6087308A91F480C97CDE90836CDE970
:101260000A4504F03BFAC02308A91B480C97CDE9B6
:101270000836CDE90A4504F031FA08A913480C975D
:10128000CDE90886CDE90A4504F028FA102308A91B
:101290001048CDE908360923CDE90A450C9304F03E
:1012A0001DFA40462246052104F06AF8404604F043
:1012B00099F83AB0BDE8F08100100050004402589F
:1012C00000040258000C0258001002580000025896
:1012D00000180258001C0258000802582DE9F0437B
:1012E00091B00446142200210BA819F063FF236873
:1012F000894A934240F0B180884A13680133012B38
:1013000013600CD1864BD3F8D42042F40012C3F8FA
:10131000D420D3F8D43003F400130093009B804B07
:10132000022600250324D3F8D42009270BA97D48E1
:1013300042F480424FF00A084FF00409C3F8D42069
:10134000D3F8D42002F480420192019AD3F8E0202D
:1013500042F04002C3F8E020D3F8E02002F040025F
:101360000292029AD3F8E02042F00802C3F8E0208B
:10137000D3F8E02002F008020392039AD3F8E020A9
:1013800042F01002C3F8E020D3F8E02002F010028F
:101390000492049AD3F8E02042F02002C3F8E0203F
:1013A000D3F8E02002F020020592059AD3F8E0205D
:1013B00042F00202C3F8E020D3F8E03003F0020369
:1013C0000693069B4FF40073CDE90B36CDE90D541F
:1013D0000F9704F083F9B0230BA95348CDF83C8054
:1013E000CDE90B36CDE90D5404F078F90BA94F483F
:1013F0000F97CDE90B96CDE90D5404F06FF940231A
:101400000BA94848CDF83C80CDE90B36CDE90D5409
:1014100004F064F94FF460530BA943480F97CDE9EA
:101420000B36CDE90D5404F059F94FF480630BA944
:101430003F480F97CDE90B36CDE90D5404F04EF936
:101440000BA93C48CDF83C80CDE90B96CDE90D5475
:1014500004F044F911B0BDE8F083374A9342F9D162
:101460002E4A13680133012B13600CD12C4BD3F897
:10147000D42042F40012C3F8D420D3F8D43003F4BB
:1014800000130793079B264B032402260025D3F85D
:10149000D42009270BA9234842F40022C3F8D42002
:1014A000D3F8D42002F400220892089AD3F8E0205E
:1014B00042F04002C3F8E020D3F8E02002F04002FE
:1014C0000992099AD3F8E02042F02002C3F8E02004
:1014D000D3F8E0300F9703F020030A930A9B40F6FD
:1014E0000303CDE90D54CDE90B3604F0F7F84FF4C2
:1014F000A0530BA90B480F94CDE90B36CDE90D5441
:1015000004F0ECF841F21F030BA909480F97CDE94D
:101510000B36CDE90D549BE70050005244010024E6
:101520000044025800180258000C025800100258DB
:10153000001402580004025800A00052274A08B5BF
:10154000036893422AD1264B1A68013A1A60254B48
:101550002AB9D3F8D42022F40012C3F8D420D3F847
:10156000D4204FF41071204822F48042C3F8D420D4
:1015700004F09AF943F6B0011C4804F095F90421EF
:101580001B4804F091F94FF480611A4804F08CF97B
:1015900004211948BDE8084004F086B9174A93426F
:1015A0001AD10F4B1A68013A1A600E4B2AB9D3F8B8
:1015B000D42022F40012C3F8D420D3F8D42041F66A
:1015C0000341094822F40022C3F8D42004F06CF946
:1015D00041F21F010748DDE708BD00BF005000527F
:1015E000440100240044025800180258000C02581C
:1015F00000100258001402580004025800A00052C3
:10160000036884B0194A93420ED1194BD3F8F020E5
:1016100042F00102C3F8F020D3F8F03003F00103E8
:101620000193019B04B07047124A93420DD1104BB5
:10163000D3F8E82042F00402C3F8E820D3F8E830F9
:1016400003F004030293029BECE70B4A9342E9D1B7
:10165000074BD3F8E82042F00802C3F8E820D3F89B
:10166000E83003F008030393039BDBE7000001402D
:101670000044025800080040000C00400F4B07B522
:1016800002689A4217D10E4B05212D20D3F8E8208D
:1016900042F48072C3F8E8200022D3F8E83003F463
:1016A00080730193019B03F06BFE2D2003B05DF866
:1016B00004EB03F097BE03B05DF804FB002000408C
:1016C0000044025810B588B004461422002103A833
:1016D00019F070FD23682B4A93421CD12A4B4FF41A
:1016E000804003A9D3F8E02042F01002C3F8E020C4
:1016F000D3F8E03003F010030093009B0223CDE900
:10170000030300232148CDE905330123079303F0A8
:10171000E5FF08B010BD1E4A934218D11A4B4FF492
:1017200000411C48D3F8E02042F00802C3F8E02052
:101730000022D3F8E03003F008030193019B022359
:10174000CDE90522CDE90313079303A9DFE7124A88
:101750009342DED10C4B03A91048D3F8E02042F0AD
:101760000102C3F8E0200122D3F8E03003F00103C6
:101770000293029B0223CDE9032300220793CDE9C4
:101780000522C4E70000014000440258001002583E
:1017900000080040000C0258000C004000000258F5
:1017A0000F2810B504468AB002D901200AB010BD36
:1017B00001460022362003F0E3FD362003F012FE3E
:1017C000184B694602A81C60174BD3F8E82042F07A
:1017D0001002C3F8E820D3F8E83003F010030193B7
:1017E000019B06F07DF9079BC3B906F055F90F4C34
:1017F0000F4B236040F2E733E3600E4BB0FBF3F096
:1018000001380023606020462361A36007F08EF951
:101810000028CAD1204607F021F8C7E706F03CF9B6
:101820004000E4E75C000024004402586471002496
:101830000010004040420F007047FEE7FEE7FEE761
:10184000FEE77047014807F053B800BFB8700024A6
:10185000014807F04DB800BF64710024014804F04E
:101860008BBD00BF586F0024014803F0ADBE00BF20
:10187000507000240120704708B519F041FC162370
:1018800003604FF0FF3008BD08B519F039FC16238E
:101890000360FEE770B50E4614460025A54201DB45
:1018A000204670BDAFF3008070550135F6E770B586
:1018B0000E4614460025A54201DB204670BD705D32
:1018C0000135AFF30080F6E74FF0FF3070474FF47B
:1018D000005300204B607047012070470020704784
:1018E0000B4B0246196810B509B90A491960186806
:1018F00009490A4C0244091B8A4206D919F000FC26
:101900000C2303604FF0FF3010BD1A60FCE700BFEE
:10191000480100245072002400000524001000003B
:10192000DFF834D003F072FC002103E00B4B5B586E
:10193000435004310A480B4B42189A42F6D30A4AE4
:1019400002E0002342F8043B084B9A42F9D319F015
:10195000EFFBFEF799FF704700000524E80B020833
:1019600000000024240100242401002450720024DB
:10197000FEE700F08FBC00F0FDBC4068704741609E
:1019800070470000094A136843F080731360A2F5A2
:101990004E42074B52F84C1C4C3A0B431360A2F5D5
:1019A0007B62136843F0010313607047FCED00E0B5
:1019B00055CEACC5511A01EB5301B1FBF3F07047A2
:1019C000014B1868704700BF041000E0704710B565
:1019D00004460C2119F04CFA204610BD036810B5DE
:1019E0001B69044631B19847A26863689B1A184482
:1019F000606010BD9847A060FBE770471FB50823E3
:101A000000206946CDE90230054B1B880093054B49
:101A10001B88019303F018FB05B05DF804FB00BFC1
:101A2000B66B0024B86B002410B50446042119F0ED
:101A30001FFA204610BD30B585B000200D46144673
:101A400001A90390CDE9010003F080FB40B14FF004
:101A5000500383F31188BFF36F8FBFF34F8FFEE7FF
:101A6000019820B1029B01202B60039B236005B0ED
:101A700030BD000010B1012809D07047074B082184
:101A80001A68B2FA82F25209054803F0B3BF034B59
:101A900004215A68B2FA82F25209F5E74C01002497
:101AA0000008025810B1012809D07047074B0821DF
:101AB0001A68003A18BF0122054803F09BBF034B88
:101AC00004215A68003A18BF0122F5E74C010024AE
:101AD0000008025810B1012804D0704708210248BC
:101AE00003F08DBF0421FAE70008025808B530B1B1
:101AF000012809D00020431E5842584108BD082142
:101B0000024803F071FFF6E70421F9E700080258E4
:101B100070B5084D00240126E0B2FFF7E7FF18B1C9
:101B20002B68012B18BF2E6001340435052CF3D12E
:101B300070BD00BF4C010024012380F8741080F8B0
:101B4000753070470020704700207047836B0BB1E1
:101B50000846184770474FF6FF70704740680368A3
:101B60009B6918477047000038B5044600F0ACFC8C
:101B70000A4A4FF0E04123682046D3F88450084BCE
:101B8000A84704F17C05FFF7C3FF2846FFF7FAFEDC
:101B90000123256184F86C3038BD00BF0000067059
:101BA00000000C7008B531B90A4B4FF42B710A4A8A
:101BB0000A4819F073FAC0E90F12003A0849436461
:101BC00018BF0122003B0A7018BF0123054A137099
:101BD00008BD00BF8CC20108C4C2010812C30108BD
:101BE000BA6B0024BB6B002408B5094B1B888B42E1
:101BF00003D8084B1B88934205D9074B9E21074AFF
:101C0000074819F04BFA074B1980074B1A8008BD9B
:101C1000B06B0024B26B002457C30108BAC301089B
:101C200012C30108B66B0024B86B002408B5036822
:101C30000446DB6F9847236820465B6F984700F0A7
:101C4000E7F823682046DB6E984701224FF4806155
:101C5000074803F0CFFE01224FF40041054803F08E
:101C6000C9FE00F0D5F823682046DB6E9847F8E7F8
:101C7000000C02580018025810B504460AF094FCF3
:101C800023682046D3F8A430BDE81040184700F080
:101C90000DBC00F011BC000070B500F06DFC104AE6
:101CA0000023C2F88430BFF34F8FD2F8803043F660
:101CB000E074C3F3C900C3F34E335B0103EA0406C7
:101CC000014646EA81750139C2F87452F9D2203BC7
:101CD00013F1200FF2D1BFF34F8FBFF36F8F70BDA1
:101CE00000ED00E000F0BEBB00F068BC00F052BCAC
:101CF00000F0C2BB09F010BE10B50446882119F0EF
:101D0000B7F8204610BD90F877301BB140680368E3
:101D10001B6818471846704790F834100D4B10B5E3
:101D200090F874401A788C4209D03AB90A490B4AA3
:101D300008881488108001220C801A7010BD002AB7
:101D4000FCD0064A0449148808880C8010800022C0
:101D5000F3E700BFB46B0024B26B0024B06B002427
:101D6000014608B5034B186801B101210AF036FCA1
:101D7000012008BDBC6B00240121002208B50846E3
:101D800007F0DFF90A4B186028B90A4B28210A4AE4
:101D90000A4819F083F900220421012007F070FAA3
:101DA000074B186018B9074B2C21034AF0E708BD10
:101DB00060010024D0C4010819C5010848C5010804
:101DC0005C0100249BC50108024B4FF0FF311868ED
:101DD00007F002BA60010024014B186807F028BA26
:101DE00060010024024B0021186807F0F5B900BF1C
:101DF00060010024FFF7F0BF0023034803491A469F
:101E0000006807F079BA00BF5C01002418000024C4
:101E100013B50023074C01A91A46206807F09CFA65
:101E20004FF0FF33002201A9206807F095FA02B0B5
:101E300010BD00BF5C01002403685B6C18470120E3
:101E4000704703689B6A184740F2EF307047000004
:101E5000024B1B68586803685B691847BC6B002419
:101E600008B50B280BD8DFE800F01206100A0A0AA2
:101E70000A0808080808012008BD0520FCE7054BF2
:101E80006621054A054819F009F90020F4E7022007
:101E9000F2E700BFDDC50108F8C5010842C6010828
:101EA00008B50A2809D8DFE800F010060E0808086F
:101EB000080606060600012008BD054B8721054AD5
:101EC000054819F0EBF80020F6E70220F4E700BF20
:101ED000DDC5010893C6010842C601082DE9F84393
:101EE00091F81D800C464046FFF7BAFFA77F0546D4
:101EF0003846FFF7B5FF06463846FFF7D1FFA18AFF
:101F0000628B4C4B521A9E461A649A61228B521A6B
:101F10001A61E28A586342EA014221695A6462689E
:101F2000D963DA60D4F800C094F81C90BCF1800F3B
:101F30004FEA096229D013D8BCF1200F45EA02000C
:101F400067D0BCF1400F64D0BCF1040F5DD02A43D0
:101F5000384BB84542F40032DA6167D0364A40E087
:101F6000BCF5807F07D0BCF5007FF0D142F4003291
:101F700042F0090203E042F4003242F00A02DA6160
:101F8000E2681A625E6259612AE02A43A06842F45C
:101F90000032DA61021D5E625961DA62027842B192
:101FA000012A20D0254B40F20111254A254819F07D
:101FB00075F842880124D969501E21F47F4222F02D
:101FC000100242EA0022DA611A4BDA6942F020027A
:101FD000DA61DA699206FCD410229A60002CBDD036
:101FE000194A1A6020E04288B9F1FF04D96902F168
:101FF000FF3018BF012421F47F4222F0100242EA90
:10200000002242F01002DA61DEE740F40030D861CD
:10201000B8E740F400300C4BCEF81C00CEF824603A
:10202000CEF81410CEF80030BDE8F88340F201225B
:10203000D7E700BF0010005201020100DEC6010810
:10204000F8C6010842C601080102020038B50C4674
:10205000887FFFF725FF124BA58AE18A628B41EA50
:1020600005415863521B59642169D9631A64256874
:10207000082D0ED19A611A6158620A4A207F42EAFD
:102080000062DA61E2681A62074A5961D9601A602F
:1020900038BD0022D8611A61E2689A63034AF6E704
:1020A00000100052090001000102020001020300B9
:1020B000054B4FF080620360044BC3F88820BFF3E8
:1020C0004F8FBFF36F8F704740C7010800E100E0FA
:1020D00010B50446FFF7ECFF4FF44261204618F0BC
:1020E000C7FE204610BD00000F4B82B0D3F8D420AD
:1020F00042F01002C3F8D420D3F8D42002F010022A
:102100000192019ADA6F42F01002DA67DA6F22F078
:102110001002DA67054B064A1A62064B4FF08062DE
:102120009A6002B0704700BF00440258507000240B
:10213000511E000800E100E070B504460A4B0C3067
:1021400000262546602260602672667245F8203BB4
:1021500029460AF0ABFB04F54263EE602035AB4242
:10216000FBD1204670BD00BF40C701080120704769
:102170000C2070470C2303FB0100083070470C2330
:1021800003FB0100083070470120704740F2D46023
:10219000704740F2D46303FB01000830704740F2FF
:1021A000D46303FB01000830704701207047102002
:1021B000704700EB01100830704700EB0110083049
:1021C0007047084600F014BB034B10B5044603608B
:1021D00009F0D4F8204610BDF8C7010810B5044630
:1021E000FFF7F2FF1421204618F042FE204610BDF2
:1021F000034B10B50446036009F0C0F8204610BD3B
:10220000C4C7010810B50446FFF7F2FF40F2DC61D5
:10221000204618F02DFE204610BD0000034B10B5DF
:102220000446036009F0AAF8204610BD90C70108D3
:1022300010B50446FFF7F2FF1821204618F018FEEB
:10224000204610BD084B10B50446036000F5E16060
:10225000FFF7BAFF04F12C00FFF7CAFF04F11400E6
:10226000FFF7DCFF204610BD2CC8010808B5024866
:10227000FFF7E8FF08BD00BF6801002410B5044661
:10228000FFF7E0FF40F67801204618F0F1FD204608
:1022900010BD00002DE9F34100F0ECF900240546E3
:1022A00000F0ECF92346014622462846009410F03F
:1022B000CFFA254B254A2046254D1A6001F010FB28
:1022C000244810F007FA2B78BFF35B8FDB0735D477
:1022D000284618F0CFFD88B31F4C204B04F5E46668
:1022E00004F1140004F12C0804F5E1672360606038
:1022F000C4F80880E760266109F042F8184B4046B0
:10230000636109F03DF8174B3846E36209F038F88D
:10231000154B04F21C70C4F8083701F061FB22462B
:1023200004F21C71304601F051FB304600F060FAB7
:10233000284618F0ABFD0D4818F0CEFE0C4802B050
:10234000BDE8F041FFF710BC186C00248C16002487
:10235000640100241C000024680100242CC801082A
:1023600090C70108C4C70108F8C701086D2200081A
:10237000041600240148FFF759BC00BF04160024CE
:1023800070B5274E274B284C3046284D2360FFF769
:10239000D3FE284612F0B0FC254B00224FF480718A
:1023A00024481A8583F82A20DA621A861A6683F886
:1023B0006C201A67DC60C3E912121F49C3E91912C5
:1023C0004FF080715967012183F878101B490B6029
:1023D0004FF4F07101801A48C3E90422C3E90622D0
:1023E000C3E90822C3E90E22C3E91022C3E914227B
:1023F000C3E91622C3E9016501804FF488711148D1
:10240000C3F880200180104883F8342001800F49F0
:10241000C3F884200A700E490E4A1960DA6770BD4D
:10242000E40900247CC20108E0090024901600247D
:1024300004160024B06B002401000001BC6B0024D2
:10244000B66B0024B26B0024B86B0024B46B00247C
:1024500008C4010854C201080148FFF729BE00BFA3
:10246000E4090024034B902283F85A2383F858236D
:10247000704700BF00E100E0094A0A49D3680A48F2
:10248000C3F30A03013B9BB20B801169C1F30A013C
:10249000013901801364536B43F0010353637047A8
:1024A00000100050EA160024E8160024014B986A38
:1024B000704700BF84100050024B0122996243F81C
:1024C000602C70478410005070B5044609F079FA0A
:1024D00023681D6E0DF020F801462046A8472368AA
:1024E0002046054AD3F884504FF0E0410023AC4623
:1024F000BDE87040604700BF0000067009F048BAB0
:1025000009F052BA09F06BBB104A002370B5C2F84B
:102510008430BFF34F8FD2F8803043F6E074C3F3BA
:10252000C900C3F34E335B0103EA0406014646EAE1
:1025300081750139C2F87452F9D2203B13F1200F92
:10254000F2D1BFF34F8FBFF36F8F70BD00ED00E08E
:10255000034B5B69DB0301D5FFF7D6BF704700BFB4
:1025600000ED00E0034B5B69DB0301D5FFF7CCBF57
:10257000704700BF00ED00E008B509F0D3F9044B47
:102580005B69DB0303D5BDE80840FFF7BDBF08BDAD
:1025900000ED00E0084B4FF08062C3F88820BFF3E5
:1025A0004F8FBFF36F8F4FF08072C3F88820BFF357
:1025B0004F8FBFF36F8F704700E100E0034B4FF088
:1025C00080629A604FF080729A60704700E100E08C
:1025D000134B144A1B6C11888B4210B5124C13D14B
:1025E000124B198803F052FF226892F866300133CB
:1025F00082F86630FFF700FC206809F0D5FF002064
:10260000BDE81040FFF736BA03F040FF0020FFF7A7
:1026100049FA20680368BDE810401B6A184700BFEC
:1026200000100050EA160024BC6B0024E8160024B9
:10263000704710B50446042118F01AFC204610BD5E
:1026400008B5032913D8DFE801F002060A0E01F0ED
:1026500093F9006808BD01F08FF94068FAE701F0CE
:102660008BF98068F6E701F087F9C068F2E700208F
:10267000F0E70000004870474CC801080B20704785
:1026800013B5002451B1036801AA01948DF80340E9
:102690009C680DF10303A04702B010BD0846FBE79C
:1026A0004089704780897047808870478379808827
:1026B000184480B27047C07900F07F007047C0793D
:1026C000C0097047704710B50446082118F0D0FBC8
:1026D000204610BD704700F596730868496803C32B
:1026E000704770477047416070477047012303721D
:1026F00070477047704710B441680346C2689B68D2
:10270000541001EB6200D20748BF0A595DF8044B30
:1027100048BFD358184743682BB183682BB9C068AA
:1027200000F001007047184670470120704710B54F
:1027300004460C2118F09CFB204610BD10B5044641
:10274000102118F095FB204610BD10B504464FF43B
:10275000AC7118F08DFB204610BD10B50CF0DCFEFE
:102760000368BDE810401B6B184710B50446D0F84D
:102770003C0158B10368DB68984738B1D4F83C0194
:1027800003689B6898470023C4F83C3110BD0000E3
:10279000F8B5044617460E460CF0E0FE104B002537
:1027A0001C6029460F4BC4E954760F4E23603068F5
:1027B0000E4BC4E95255C4E950350368C4E94E557F
:1027C0009B689847284601F08BF8336893F8762089
:1027D0000AB1D86C00B9986813F07BFB2046F8BDAD
:1027E000086C002478CC0108BC6B002460CC010884
:1027F000064BC0F84401C0F848310023C0F84C3102
:1028000000F5A073C0F83C31704700BF51290008A3
:102810002DE9F84F074690689946884603681446A4
:10282000DDF828A01B6A984740F2D363984205D888
:10283000414BA321414A424818F030FC60680368CC
:102840001B6A98470F2803D83E4BA4213B4AF2E766
:10285000E06803681B6A98470B2803D83A4BA52108
:10286000364AE8E70CF058FE0CF05CFED9F80000A0
:1028700010B10368DB689847D9F8000010B103680D
:102880001B689847386810B103685B699847D8F8A7
:10289000000010B103685B689847386810B103689E
:1028A0001B689847D8F8000010B103689B689847E8
:1028B000E06800214FF0000B03685B6A9847234BE8
:1028C0000546C0F804B00360594680F808B0A06817
:1028D00003685B6A9847064601F064F960685946E8
:1028E00003685B6A98470446314601F08BF8C9F8E3
:1028F0000050C8F800403E60E4B1231DCAF8003023
:1029000030463368C4F808A0DB68F463984723684E
:1029100020461B689847294630460EF0EBF92B6895
:1029200028461B6998472B6828465B6998472046CC
:10293000BDE8F88F2346E1E738C90108C6C9010898
:10294000CACA010811CB0108B4CB0108BCCC0108EC
:10295000D0F8543107B500F59C710093044BD0F8C2
:1029600050210448FFF754FF03B05DF804FB00BF9B
:10297000FC6B0024F86B0024006A7047406A7047C3
:1029800070478B888069DB0A0A6850F8230010447E
:10299000704710B5C2B1137BB3B1547BD27A240215
:1029A00004F4E0641443C26998B202EB8402138811
:1029B0008B4202D192F9020010BD05D801380432D1
:1029C00080B20028F3D1F7E70020F5E710B5044600
:1029D000282118F04DFA204610BD000030B589B00E
:1029E0000446BDF850500695BDF84C5005959DF82D
:1029F000405004959DF83C5003959DF83850029541
:102A00009DF8345001959DF8305000950DF0B0FDC3
:102A1000064B20462360119BA361129BE361159B2B
:102A20002362169B636209B030BD00BFE0CC010891
:102A30000020704781807047C180704701817047D6
:102A4000418170477047704770477047704710B4B6
:102A5000C4880368121B84881B6D091B12B25DF8C1
:102A6000044B09B218474FF6FF7383814FF0FF33D1
:102A700003621368C3611060704770477047704706
:102A80007047704790F825201AB190F8242002B1C1
:102A900018607047704770477047704770477047BD
:102AA000704770477047704770477047704770476E
:102AB00070477047704770477047704730B444683C
:102AC0000346C2689B68551004EB6200D20748BFFA
:102AD000625930BC48BFD358184743682BB183684C
:102AE0002BB9C06800F001007047184670470120FC
:102AF000704710B50446102118F0BAF9204610BDF1
:102B000010B5044640F2D46118F0B2F9204610BD69
:102B100000F198020346914202D10368DB6D184729
:102B200000F1E002914202D103681B6BF7E700F568
:102B30009472914202D10368DB6AF0E700F5B87243
:102B4000914202D103689B6DE9E700F5DC72914286
:102B500002D103685B6DE2E700F50072914202D199
:102B600003681B6DDBE700F51272914202D1036826
:102B7000DB6CD4E700F52472914202D103689B6CB0
:102B8000CDE700F53672914202D103685B6CC6E76F
:102B900000F54872914203D10268126C1846104742
:102BA00000F55A72914202D10268D26BF6E700F545
:102BB0006C72914202D10268926BEFE700F57E726F
:102BC000914202D10268526BE8E700F294529142BE
:102BD00002D10268126EE1E700F2DC52914202D1AA
:102BE0000268526EDAE700F21462914202D1026882
:102BF000926ED3E700F24C62914202D10268D26E2B
:102C0000CCE77047074A02600022C0E90122C0E910
:102C10000322C0E90522C0E907224FF480728284B2
:102C2000704700BF20E50108036870B50446DB6A01
:102C3000154698472368204629461B6BBDE870401F
:102C4000184770B504461D46BDF91060FFF7ECFF4C
:102C50002368294620465B6B984723683146204607
:102C60009B6BBDE87040184710B504462622002132
:102C700018F0A0FA2046FFF7C5FF044B204623605A
:102C8000FF2384F826300023A36210BD1CDF010857
:102C900073B54FF6FF73018F0646994233D01C4B34
:102CA0001B682BB91B4BAE211B4A1C4818F0F6F9C8
:102CB0001B4A12888A4203D81A4BAF21164AF4E7FE
:102CC00013F81120184B1B6853F82250174B186843
:102CD00000F042FE2B68014601909B6A2846984707
:102CE0002B68044601991B6C2846984714FB00F496
:102CF0002B682846E4B201995B6A9847044486F839
:102D0000454002B070BD002380F84530F9E700BFB0
:102D10000C6C002430CD010872CD0108A0CD010853
:102D2000106C0024E7CD0108146C0024186C0024FA
:102D300010B504462622002118F03CFA2046FFF781
:102D400061FF074B4FF47F0220462360054BA362CF
:102D50004FF6FF73A3850023C4E90C32238710BD0F
:102D600074DE010830C9010810B50446262200218E
:102D700018F020FA2046FFF745FF0023084A2046B6
:102D8000A36284F82C300123226084F824304FF6AB
:102D9000FF73E385238684F83230A38610BD00BF1D
:102DA00060DD01082DE9F04F04460027EA4D4FF0A1
:102DB000060A04F5D16B4FF0070904F2C4664FF020
:102DC00005082DED108B93B00DF0E8FD2246E34B86
:102DD000E76342F8403B104608EE102AFFF744FF35
:102DE00004F16C0318460893FFF73EFF04F19803C3
:102DF000184608EE903A0AF09BFE04F1E0031846EC
:102E000009EE103A0AF094FE04F59473184609EEA0
:102E1000903A0AF08DFE04F5B87318460AEE103A9F
:102E20000AF086FE04F5DC7318460AEE903A0AF0C2
:102E30007FFE04F5007318460BEE103A0AF078FE98
:102E400004F5127318460BEE903A0AF071FE04F581
:102E5000247318460CEE103A0AF06AFE04F5367335
:102E600018460CEE903A0AF063FE04F548731846D3
:102E70000DEE103A0AF05CFE04F55A7318460DEE9A
:102E8000903A0AF055FE04F56C7318460EEE103AAF
:102E90000AF04EFE04F57E7318460FEE103A0AF063
:102EA000DBFC04F2344318460993FFF7DDFE04F51A
:102EB0008D63C4F834541846C4F86074A4F864747C
:102EC0000A93FFF7D1FE04F29C43C4F86854C4F897
:102ED00094741846A4F898740FEE903AA04DFFF73A
:102EE00027FF04F2DC43C4F89C541846C4F8D87495
:102EF0000293FFF71DFF04F21C53C4F8DC54C4F81E
:102F000018754FF4887518460393FFF711FF04F501
:102F1000AB6318460493FFF70BFF04F29453184673
:102F20000EEE903A0AF004FE04F2DC5318460593C4
:102F3000FFF71AFF04F2146318460693FFF714FF15
:102F400004F24C63184607930AF086FC4FF6FF73B1
:102F500010A95846ADF8403009F052FD814B3A4671
:102F6000394618EE100AC4F8C4367F4B0095C4F8F1
:102F7000CC364FF4F073C4F8C846C4F8D076FFF7E7
:102F800060FE4FF07F433A4639460898A3664FF4F7
:102F9000F07300954FF0FF35FFF753FE734B10228F
:102FA0003946C4F8943018EE900AFFF73DFE10AA97
:102FB0000FA918EE900AADF83CA0ADF840900AF0C9
:102FC0004BF918EE900AA4F8D070FFF761FE1022BA
:102FD0003C2119EE100AC4F8C060C4E93555FFF76A
:102FE00023FE0FA910AA19EE100AADF83CA0ADF807
:102FF00040900AF031F94FF0010219EE100AA4F8DE
:103000001821FFF745FE1022782119EE900AC4F826
:103010000861C4E94755FFF707FE0FA910AA19EE8A
:10302000900AADF83CA0ADF840900AF015F94FF0C9
:10303000020219EE900AA4F86021FFF729FE4C2243
:1030400039461AEE100AC4F85061C4E95955FFF721
:10305000EBFD0FA910AA1AEE100AADF83CA0ADF8CE
:1030600040900AF0F9F84FF003021AEE100AA4F8A3
:10307000A821FFF70DFE4C223C211AEE900AC4F85D
:103080009861C4E96B55FFF7CFFD10A91AEE900ABD
:10309000ADF83CA00A460FA9ADF840900AF0DCF864
:1030A0004FF004011AEE900AA4F8F011FFF7F0FDBA
:1030B0004C2278211BEE100AC4F8E061C4E97D556A
:1030C000FFF7B2FD10A91BEE100AADF83CA00A46AE
:1030D0000FA9ADF840900AF0BFF81BEE100AA4F853
:1030E0003882FFF7D5FD882239461BEE900AC4F8D6
:1030F0002862C4E98F55FFF797FD10A91BEE900ACF
:10310000ADF83CA00A460FA9ADF840900AF0A4F82B
:103110001BEE900AA4F880A2FFF7BAFD88223C219A
:103120001CEE100AC4F87062C4E9A155FFF77CFDDB
:1031300010A91CEE100AADF83CA00A460FA9ADF884
:1031400040900AF089F81CEE100AA4F8C892FFF724
:103150009FFD882278210BE05CE001085CCE01082D
:10316000B4DF010844CE0108112B00080E0E57FFF2
:103170001CEE900AC4F8B862C4E9B355FFF754FDD9
:1031800010A91CEE900AADF83CA00A460FA9ADF8B4
:1031900040900AF061F84FF008011CEE900AA4F884
:1031A0001013FFF775FDC42239461DEE100AC4F84E
:1031B0000063C4E9C555FFF737FD10A91DEE100ADD
:1031C000ADF83CA00A460FA9ADF840900AF044F8CB
:1031D0004FF009011DEE100AA4F85813FFF758FD2F
:1031E000C4223C211DEE900AC4F84863C4E9D755B7
:1031F000FFF71AFD10A91DEE900AADF83CA00A4693
:103200000FA9ADF840900AF027F80A231DEE900AA6
:10321000A4F8A033FFF73CFDC42278211EEE100A6B
:10322000C4F89063C4E9E955FFF7FEFC10A91EEE4F
:10323000100AADF83CA00A460FA9ADF840900AF07C
:103240000BF80B231EEE100AA4F8E833FFF720FD5D
:10325000C422B4211FEE100AC4F8D863C4E9FB5598
:10326000FFF7E2FC4FF003020DA91FEE100AADF8C4
:103270003C20ADF8402010AAADF834A000920FAA6F
:10328000ADF8389013460EAA0AF043FA4FF00F0239
:103290007923F721A4F830244FF010020998A4F8FC
:1032A00032245222C4F8206400924246FFF7C9FC3F
:1032B0004FF07F42D14B4FF4BA71C4F860245222D0
:1032C0000A98C4F85C34642300924246A4F86484EB
:1032D000FFF7B7FCC94B2822FF21C4F890344FF008
:1032E0007F431FEE900AA4F89884C4F894342323F3
:1032F00000936823FFF7A5FC04F2B463C4F8CC5430
:103300000B93BF4BA4F8D0741B682BB9BD4BAE21F7
:10331000BD4ABE4817F0C2FEBD4B1B88102B03D818
:10332000BC4BAF21B84AF4E7BB4B1021186800F042
:1033300013FBBA4A034603210B980FF003F8B84B6E
:103340000B991FEE900A10930E23C4F8D81410A9FD
:10335000ADF8443009F040FF1F234FF4BE712E2218
:10336000029800935423FFF76CFC04F2BA61C4F88E
:103370000C550B91A249A4F810750B68002BC5D011
:10338000A3490B88112BCBD9A34A1121106800F057
:10339000E3FAA24A034604210B980EF0D3FF0B9ADE
:1033A0009F4B10A9C4F818254FF00F0202981093F4
:1033B000ADF8442009F010FF0F2203984FF4C971B3
:1033C000FFF732FC964B10A9039810930C23C4F816
:1033D0004C55A4F85075ADF8443009F0FDFE0F22AD
:1033E0000498FF21FFF720FC8D4B10A9049810933F
:1033F0000D23C4F88855A4F88C75ADF8443009F055
:10340000EBFE1EEE900A8822B421FFF70DFC10AAF5
:103410000FA91EEE900AADF83CA0ADF8409009F05F
:103420001BFF12231EEE900AA4F8CC35FFF730FCE8
:103430000598C4F8D0556222C4F8D45540F203115F
:103440004FF00405C4F8BC65FFF7EEFB10AA0FA906
:103450000598A4F81086ADF83C50ADF8408009F00E
:10346000FBFE069862224FF4BB71C4F80466FFF7B6
:10347000DBFB10AA0FA90698A4F84886ADF83C50CB
:10348000251DADF8408009F0E7FE0798C4224FF4EF
:103490009671C4F83C66FFF7C7FB4FF008030EAA0D
:1034A0000DA9ADF834304FF009030798ADF8383066
:1034B0004FF00203ADF83C304FF00103ADF840305F
:1034C00010AB00930FAB0AF024F9472310A958461C
:1034D000A4F884364FF01003C4F87466A4F8863656
:1034E000ADF840700AF0DFF9FA2309225846F121BD
:1034F00000930223FFF7A5FB3946584609F047FA27
:1035000018EE101A284607F0B5FF0899284607F06C
:10351000B1FF18EE901A284607F0ACFF19EE101A0A
:10352000284607F0A7FF19EE901A284607F0A2FFD9
:103530001AEE101A284607F09DFF1AEE901A284638
:1035400007F098FF1BEE101A284607F093FF1BEEBA
:10355000901A284607F08EFF1CEE101A284607F036
:1035600089FF1CEE901A284607F084FF1DEE101A02
:10357000284607F07FFF1DEE901A284607F07AFFD5
:103580001EEE101A284607F075FF1FEE101A284687
:1035900007F070FF0999284607F06CFF0A99284642
:1035A00007F068FF1FEE901A284607F063FF0299A4
:1035B000284607F05FFF0399284607F05BFF049950
:1035C000284607F057FF1EEE901A284607F052FFD4
:1035D0000599284607F04EFF0699284607F04AFF4E
:1035E0000799284607F046FF2846594607F042FF4C
:1035F000204613B0BDEC108BBDE8F08F0E0E57FFC8
:103600000C6C002430CD010872CD0108A0CD01085A
:10361000106C0024E7CD0108186C002439CE010895
:1036200030C901087047000030B5154D8DB02C78B9
:10363000BFF35B8F14F001041ED1284617F01AFC6B
:10364000D0B13F2301220F4907930F4B0F48069338
:103650000F4B089403940094CDE904430423CDE96F
:103660000944CDE901320A23FFF7B8F9284617F0DB
:103670000DFC084817F030FD04480DB030BD00BF08
:10368000EC16002410090208C80A0208F0160024EB
:10369000E00A0208253600087047000030B5154DD5
:1036A0008DB02C78BFF35B8F14F001041FD1284636
:1036B00017F0E0FBD8B13F2301220F4907930F4BCE
:1036C0000F4806930F4B08940394CDE90443042359
:1036D000CDE90944CDE9013200930C221423FFF710
:1036E0007DF9284617F0D2FB074817F0F5FC04488F
:1036F0000DB030BD1817002420090208CC0A0208BA
:103700001C170024E40A02089936000870470000DC
:1037100030B5154D8DB02C78BFF35B8F14F00104DC
:103720001FD1284617F0A6FBD8B13F2301220F492D
:1037300007930F4B0F4806930F4B08940394009484
:10374000CDE904430423CDE90944CDE901321E2328
:103750001122FFF743F9284617F098FB074817F0A6
:10376000BBFC04480DB030BD44170024C809020852
:10377000D80A020848170024E80A02080D37000892
:103780007047000030B5154D8DB02C78BFF35B8FBE
:1037900014F001041ED1284617F06CFBD0B13F2372
:1037A00001220F4907930F4B0F4806930F4B0894C4
:1037B00003940094CDE904430423CDE90944CDE901
:1037C00001322823FFF70AF9284617F05FFB084863
:1037D00017F082FC04480DB030BD00BF7017002404
:1037E000B80A0208DC0A020874170024EC0A02086E
:1037F0008137000800207047002070470EB403B5E1
:1038000003AB002153F8042B01930CF0E5FC02B04C
:103810005DF804EB03B070470CB407B504AB53F884
:10382000042B01930CF0D8FC03B05DF804EB02B05C
:1038300070470000436C10B5044673B3038F2BB977
:10384000184BC021184A194817F028FCC38E00EB0A
:1038500043035B8C0BB30DF0BDFF238F012B03D80B
:10386000134BC521134AEEE7E28E40F63F10531C7E
:103870009BB2092B194688BFA3F10A0104EB410151
:10388000498C814209D10A2B04EB420228BF002354
:10389000508C04EB4303588451842046BDE810400B
:1038A0000DF07CBECCCE0108D5CE010880CF01083A
:1038B000CACF0108D8CF01080DF028BE10B586B0D8
:1038C00002AC84E806001A460AAB21460593019330
:1038D000099B0093089B0BF079F906B010BD00001E
:1038E00038B518BB124B13481B681349B3B11A689B
:1038F0009C681A441C4402605A681A440A600F4BC0
:1039000000221A8000F038F8054600F033F80C4B1E
:103910001C600C4B1D600C4B188007E00B4B0360C8
:103920000B4B0B600B4B1C68002CE8D138BD00BF63
:103930009C170024A0170024A4170024A817002413
:103940000C6C0024146C0024106C00243C0B020846
:10395000F00A0208C80B0208044B1B6853F8210048
:10396000034B1B6803EB4000704700BFA417002403
:10397000A01700241320704700487047AC1700249C
:1039800010B5074CFFF7C4FE2060FFF7FBFE606038
:10399000FFF74AFEA060FFF781FEE06010BD00BFA8
:1039A000AC170024704710B504464FF4AC7117F003
:1039B0005FFA204610BD10B50446D0F8540100F05F
:1039C00012F82046BDE810400BF07ABC10B5044652
:1039D000FEF7DEFE014B2046236010BDB4D0010887
:1039E0000022026070477047704704387047704784
:1039F00010B50446102117F03BFA204610BDA0F187
:103A00000400F5E70022C1608260044A10B502F1AB
:103A1000080420320460426010BD00BFF0D00108ED
:103A200070477047044A1378B3FA83F35B09137045
:103A30000022024B1A707047D0170024BC170024D4
:103A4000014B01221A707047BC170024014B012260
:103A50001A707047BD170024014B01221A7070477D
:103A6000C8170024FFF728B808B503681B6C9847EF
:103A7000034B9FED040A1868BDE80840FCF7D2BE6E
:103A8000C01700240000000010B5044640F2D461C5
:103A900017F0EEF9204610BD164B73B51A780446A0
:103AA000012A24D1144E3278012A20D10025134A4C
:103AB00000F2146029461D701570019008F046FF51
:103AC00001980CF0ABFC04F2DC50294635700190F3
:103AD00008F03CFF01980CF0A1FC094B93ED000AA3
:103AE000084B186802B0BDE87040FCF79BBE02B0FE
:103AF00070BD00BFC8170024BD170024BC170024E8
:103B0000CC170024C0170024F0B51E4B002585B04B
:103B100004461D7000F214601B4B29461B4F1D709C
:103B20001B4B1C4E1D701C4B01901D60002335600B
:103B30003B6008F00BFF01980CF070FC04F2DC50C5
:103B40002946019008F002FF01980CF067FC3B68E1
:103B5000124A0421039304F2BA6003AB0EF0B0FDE5
:103B600033680F4A032104F2B4600EF0EBFB04F259
:103B7000DC400CF053FC04F29C400CF04FFC05B010
:103B8000F0BD00BFBC170024BD170024CC170024D3
:103B9000C8170024C0170024C417002418D1010836
:103BA0001ED1010810B50446FFF7FCF8014B204672
:103BB000236010BD30D10108234B13B51B78044698
:103BC000012B31D1214A07EE901A214B127893ED47
:103BD000006AE2B9B8EEE77AF2EE047AA6EE277A46
:103BE0001C4A0A2083ED007A13688DED017A00FBF0
:103BF000031101AB04F2BA6011600421164A0EF001
:103C00005FFD04F2DC400CF009FC02B010BDB8EE20
:103C1000E74BB2EE045BB7EEC66A84EE057B37EE87
:103C2000067BB7EEC77BDBE70C4A0A20136800FB74
:103C30000313032104F2B4601360094A0EF082FBFF
:103C400004F29C40DFE700BFD0170024BC1700241B
:103C5000CC170024C417002421D10108C017002468
:103C60001ED101080921FFF7A7BF0821FFF7A4BF54
:103C70000021FFF7A1BF0321FFF79EBF0221FFF73D
:103C80009BBF0121FFF798BF0621FFF795BF0521D4
:103C9000FFF792BF0421FFF78FBF0721FFF78CBF0B
:103CA00040F201134FF4F07200200B8005238B705B
:103CB0004FF48873C1E90123704790F82430012B39
:103CC00004BF002380F82430002070470020704794
:103CD00010B404690089A4465DF8044B604710B431
:103CE000C4680089A4465DF8044B60472DE9204371
:103CF00000F1180889460978404600F0FBF80546AF
:103D000099F80410404600F001F9054499F80810AC
:103D1000404600F007F9054499F80C10404600F0C1
:103D20000DF9054499F81010404600F013F90544C8
:103D300099F81410404600F019F9C54214BF4FF02D
:103D4000FF300020BDE82083183000F027B970B59F
:103D500000F1180588B00C462846694600F0BDF809
:103D600098BB9DF80030052B98BF184620601E2395
:103D70006A460321284600F09DF848BB6B46221D89
:103D800004F118011D78063313F8056C2C02AD09F7
:103D900004F47064344313F8036C42F8044B91420A
:103DA00013F8044C95634FEA042404F4706444EA65
:103DB0000604146113F8024C546213F8014C4FEAE4
:103DC0001414D464DED108B070BD4FF0FF30CDE7DD
:103DD0004FF0FF30F7E7183000F07AB801211830C3
:103DE00000F0D0B80021183000F0CCB810B590F831
:103DF000243004466BB9036898472046FFF7F2FF6A
:103E000000384FF0010318BF012084F824304042ED
:103E100010BD0020FCE70020704737B500F1180501
:103E20000C4601A9284600F058F808BB9DF804305C
:103E3000052B98BF184604232060032128460DEB6C
:103E4000030200F037F8B0B99DF804309DF8052062
:103E50001B0203F4706313439DF8072063609DF811
:103E600006301B0203F470631343A36003B030BD3C
:103E70004FF0FF30DFE74FF0FF30F7E790B14A68CF
:103E80000B6842600A8903600281CA68C2600A69DD
:103E900002614A6900624261044AC261044A826165
:103EA00003B118474FF0FF30704700BFD13C000806
:103EB000DF3C000810B4D0E90140A4465DF8044B93
:103EC000604710B404688068A4465DF8044B6047FE
:103ED00001230A461946FFF7EDBF10B50A460C4606
:103EE00001230221FFF7E6FF18B9237803F00F033F
:103EF000237010BD07B501238DF807100DF10702DF
:103F00009121FFF7DEFF03B05DF804FB07B5012345
:103F10008DF807100DF107029221FFF7D2FF03B0D1
:103F20005DF804FB07B501238DF807100DF10702BA
:103F30009321FFF7C6FF03B05DF804FB07B501232B
:103F40008DF807100DF107029421FFF7BAFF03B0B7
:103F50005DF804FB07B501238DF807100DF107028A
:103F60009521FFF7AEFF03B05DF804FB07B5012311
:103F70008DF807100DF107029621FFF7A2FF03B09D
:103F80005DF804FB07B501238DF807100DF107025A
:103F9000A421FFF796FF03B05DF804FB0A46012356
:103FA000A821FFF787BF4FF080624FF480334FF4B2
:103FB0008071C0E900234FF480524FF48063C0E960
:103FC00002324FF48043C0E9043283614FF480230E
:103FD000C0E907130020704770B59AB00D46064639
:103FE0000021144606A8502217F0E4F814220021FC
:103FF00001A817F0DFF82DB9012C03D14FF0FF30E5
:104000001AB070BD002306A930469D420C9311934F
:104010000CBF01220422012C0193099214BF1A46FD
:1040200008229D420B920CBF1A4610220A9240F2BF
:10403000FA5208BF052208920CBF1A464FF480625C
:10404000012C0D9214BF1A464FF400629D420F924C
:104050004FF440520E920CBF4FF080724FF08062CE
:10406000012C149214BF1A464FF000629D42169222
:104070000CBF1A460522012C17920CBF0222012206
:10408000159214BF1A464FF00052CDE918230122B1
:10409000CDE90633CDE9022310224FF48003CDE9A8
:1040A000043241F2883202F0D0FB0028A6D141F25E
:1040B000883201A9304602F005FD003818BF012002
:1040C00040429DE770B596B00C4606461546002165
:1040D000502202A817F06EF80023012CCDE900331E
:1040E00004D11DB94FF0FF3016B070BD002301217F
:1040F0009C4207930CBF01220422CDE9021318BF92
:1041000010230592069346D1002D0CBF0B230C23E0
:10411000002C049302A930460CBF4FF480734FF477
:104120008063099300239D420B930D930CBF4FF4C2
:1041300000524FF440529C4212930A920CBF4FF02F
:1041400080724FF08062159310920CBF08220622F5
:10415000CDE9132341F2883202F077FB0028C1D168
:1041600002230293D4B9002D18BF12230493002315
:1041700041F2883202A93046139302F066FB002810
:10418000B0D100906946304602F0ECFC003818BF10
:1041900001204042A8E74EF61343B9E741F2ED2370
:1041A000E4E710B596B004462822002108A817F0CD
:1041B00001F80023012208204FF400614FF0006C49
:1041C000CDE90223042205921022CDE906204EF605
:1041D0001162204604924FF4806209924FF44052DB
:1041E000CDE90A214FF0806202A910920622CDE9A2
:1041F00012C24FF00052CDE9142341F28832CDE9CA
:10420000003302F022FB18B14FF0FF3016B010BDA2
:10421000022341F2883202A9029341F2ED23CDE953
:1042200013002046049302F010FB0028ECD100900C
:104230006946204602F096FC003818BF0120404233
:10424000E4E770B59AB00C4606460021154606A86C
:10425000502216F0AFFF1422002101A816F0AAFF89
:104260002CB9012D03D14FF0FF301AB070BD0023DF
:1042700006A930469C420D9311930CBF01220422E3
:10428000012D149309920CBF08221A469C421993DF
:104290000B920CBF1A4610220A9240F2F96208BF34
:1042A0000622089241F28832CDE90633CDE9173370
:1042B00002F0CBFA0028D6D1002C40F2FA530C9031
:1042C00041F2883208BF052306A9304608930CBF87
:1042D00000234FF48063012D0D930CBF4FF4006356
:1042E0000023002C0F934FF440530E930CBF4FF05C
:1042F00080734FF08063012D14930CBF4FF0006367
:104300000023002C16930CBF00230523012D1793C7
:104310000CBF0223012315930CBF4FF00053002361
:10432000189302F092FA00289DD1022310220390E4
:1043300001A93046CDE901334FF48003CDE90432C1
:1043400041F2883202F0BEFB003818BF0120404223
:104350008BE7F0B595B00D46064614460021502275
:1043600068461F4616F026FF2DB9012C03D14FF0E9
:10437000FF3015B0F0BD0022069795420B920CBF9E
:1043800001230423012C03930CBF082313469542F9
:1043900005930CBF13461023049347F28D2308BFE7
:1043A000722302930CBF4FF480734FF48063012C8F
:1043B00007930CBF4FF400631346954209934FF4E3
:1043C000405308930CBF4FF080734FF08063012C73
:1043D0000E930CBF4FF000631346CDE90022CDE9E8
:1043E0001032D5B1012C14BF012302230F930023F7
:1043F00041F2883269463046CDE9123302F025FA9F
:104400000028B4D141F288321AA9304602F0C8FA25
:10441000003818BF01204042ABE70123E6E7F0B5C2
:1044200095B00D46064614460021502268461F46A8
:1044300016F0C0FE2DB9012C03D14FF0FF3015B09E
:10444000F0BD002269463046069795420B920CBF9C
:1044500001230423012C039314BF13460823954220
:1044600005930CBF13461023049347F28E1308BF25
:10447000712302930CBF4FF480734FF48063012CBF
:10448000079314BF13464FF40063954209934FF40A
:10449000405308930CBF4FF080734FF08063012CA2
:1044A0000E9314BF13464FF00063954210930CBF58
:1044B00013460523012C11930CBF022301230F93F4
:1044C00014BF13464FF00053CDE90022CDE912325C
:1044D00041F2883202F0B9F90028AED141F28832B7
:1044E0001A99304602F09CFA003818BF0120404269
:1044F000A5E770B594B00C4606461546002150223B
:10450000684616F057FE0CB9012D28D000236946E5
:1045100030469C4207930B930CBF01220422012DCD
:104520000E93039214BF1A4608229C4213930592DD
:104530000CBF1A461022049246F2996208BF662206
:10454000029241F28832CDE90033CDE9113302F015
:104550007CF9003818BF0120404214B070BD4FF004
:10456000FF30FAE770B594B00C46064615460021B8
:104570005022684616F01EFE0CB9012D28D00023EB
:10458000694630469C4207930B930CBF01220422DC
:10459000012D0E93039214BF1A4608229C421393D6
:1045A00005920CBF1A461022049249F6661208BF03
:1045B0009922029241F28832CDE90033CDE91133DC
:1045C00002F043F9003818BF0120404214B070BD1A
:1045D0004FF0FF30FAE70000114A08B513680BB935
:1045E000002008BD013B1360002BF9D14FF480413E
:1045F0000C4801F059F90B484FF4004101F054F90F
:10460000094A0A48D2F8F43023F08003C2F8F430A3
:1046100001F0E3FB0028E3D06FF00700E1E700BF03
:10462000D41700240014025800440258B07100242A
:104630000023012210B5416004460362C0E9023242
:10464000C0E90433C0E9063301F075FB014608B147
:10465000012010BD204601F050FD01460028F7D191
:10466000204601F070FD003818BF0120F1E700007E
:10467000A34BA4482DE9F04F036093B0A24B1A68F6
:10468000009201321A60009B002B40F0C98001F0BB
:104690002FFD002840F0C4809C4D4FF48042012142
:1046A0000426D5F8E0309A4843F02003C5F8E030FE
:1046B000D5F8E03003F020030A930A9BD5F8E030E8
:1046C00043F02003C5F8E030D5F8E030119603F050
:1046D00020030B930B9B1223CDE90D230223CDE97D
:1046E0000F130DA900F0FAFF4FF400430DA98848FD
:1046F0000D93119600F0F2FFD5F8F43043F08003EB
:10470000C5F8F430D5F8F43003F080030C930C9B1B
:10471000D5F89C3043F08003C5F89C30D5F89C3028
:1047200023F08003C5F89C3003F0C8F9002871D04D
:10473000784B4FF0100EDFF8E4914FF0140A03EBC2
:104740005003B3FBF0F000EB400240F6F6130146D5
:10475000C2F1FF22A3EB800302F57F0223EAE37399
:10476000E23202936C4B22EAE27B009A1B6890468D
:104770008C46002640F2793401960136A4455AD978
:1047800000252F46AB4552D8029CAC424FD39645EC
:104790004DD00AFB03F80133019C09EB080E7F2B77
:1047A00049F80820CEE901473ED95B4A13605A4BCD
:1047B0004FEA400B594A00261B684FF0FF3806931A
:1047C00042F2107303930BF132030993ABF51153CB
:1047D0000A3B0293069B9E4238D1B8F17F0F19D84D
:1047E000142303FB08F84D4B03EB080253F8083081
:1047F000147C44EA037453681B0503F470031C43E0
:1048000093681B0403F470231C43D3681B029BB200
:104810002343009300993B48FFF70AFF00286BD120
:10482000002013B0BDE8F08F96464FF00108013725
:104830000D44102FA6D1102E8C449BD1013201447F
:10484000102A95D1B8F1000FAFD1B0E713686FF01F
:1048500001040999002703FB00031944049103EBA9
:104860000B016143029C01911C440499089441F29C
:104870005C240797A1F132050137A14231D9B0EB91
:10488000950F2ED2019C4FF0000CDDF810E004F5DE
:104890001059089C09F11809651805F2836A41F25C
:1048A0004704CDF814C00CF1010CA24512D8BEF596
:1048B0007A6F0FD370450DD235EA250A28BFCA4654
:1048C000039C544506D9079CB046CDF80CA0146152
:1048D000059CD460BCF5807FA9EB03091D449E4470
:1048E000DBD1019CB7F5807F1944A4EB030401944C
:1048F000BDD1013614326DE76FF0070091E700BFBC
:10490000001C0058B0710024D41700240044025841
:104910000014025800CA9A3BD8210024D81700245A
:104920001FB54FF47A7400920A4601460848CDE953
:104930000134012301F06AFA40B1054801F0DBFBC4
:1049400004280CBF6FF065006FF0030004B010BDC9
:10495000B07100241FB54FF47A7400920A460146E4
:104960000848CDE90134012301F006FB40B10548B8
:1049700001F0C1FB04280CBF6FF065006FF003006D
:1049800004B010BDB071002400F0D0BC30B5214C93
:1049900085B02148A2786178FFF753FC18B16FF019
:1049A000040005B030BD03231B4800934FF440734F
:1049B000A2786178FFF7CDFC0028F0D1A278617869
:1049C0001548FFF73EFC03460028E8D101251248B0
:1049D0000095A2786178FFF7BCFC04460028DED180
:1049E000282000F0A9FC224629460B48FFF7F4FADC
:1049F0000028D4D103AB024629460093034606485B
:104A0000FFF70DFD0028CAD19DF80C30AB42C8D08D
:104A1000C5E700BFDC210024E421002430B5274D88
:104A200085B0274CAA7869782046FFF70AFC18B1B0
:104A30006FF0040005B030BD0323AA7869782046E2
:104A400000934FF44073FFF784FC0028F0D1AA785C
:104A500020466978FFF7F5FB0028E9D10223AA7800
:104A60006978009303462046FFF773FC0028DFD1E6
:104A7000282000F061FC4FF080732046E3604FF087
:104A80008053E36201F058FEA8B901222046114686
:104A9000FFF7A2FA0028CBD103AB01220093114605
:104AA00003462046FFF7BBFC0028C1D19DF80C301F
:104AB000022BBFD0BCE76FF00300BBE7DC21002472
:104AC000E42100240E4A0423C0E900230A680023DD
:104AD000026102228360C0E905234A6842628A6853
:104AE00003638262CA68012AC0E9073309BF4FF035
:104AF0008073C360C3604FF08053C36201F01CBE7B
:104B00000050005210B598B90B4CA27861785AB990
:104B100001220A48FFF7D6FA10B16FF0040010BD69
:104B2000022300202370FAE70448FFF73AFBF3E77B
:104B30006FF00100F3E700BFDC210024E421002432
:104B400010B550B9094C2378022B09D1084802F05E
:104B500038F840B90123237010BD6FF00100FBE766
:104B60006FF01A00F8E76FF00300F5E7DC2100248E
:104B7000E421002410B5002856D12D4C2378022BB7
:104B80004BD000234FF480612A482380A37000F0AB
:104B90008BFE0421284800F087FE4021274800F0C2
:104BA00083FE4FF40061264800F07EFE4FF48051F2
:104BB000234800F079FE0421224800F075FE4FF4EE
:104BC00000511F4800F070FE10211D4800F06CFEDF
:104BD00020211B4800F068FE4FF40071174800F0D8
:104BE00063FE8021164800F05FFE174B1748DA6F0E
:104BF00042F48042DA67DA6F22F48042DA67D3F84F
:104C0000D42022F48042C3F8D42001F00BFE002807
:104C10000CBF00206FF0030010BDFFF791FF0028CC
:104C2000AFD06FF00400F7E76FF00100F4E700BFCA
:104C3000DC21002400140258000402580018025815
:104C4000000C02580010025800440258E4210024CD
:104C50002DE9FF410D461646002856D12E4C2378EB
:104C6000022B55D06378012B46D10129A27809D1B6
:104C7000964207D10123002065702370A67004B00E
:104C8000BDE8F081254F01213846FFF7DAFA0346E7
:104C900078BBADF80C0000903846A2786178FFF739
:104CA00058FB804628BB282000F046FBA378012B48
:104CB00006D13846C7F80C80C7F82C8001F03CFDBF
:104CC000002216481146FFF787F990B903AB024658
:104CD0000146009303461148FFF7A1FB48B99DF830
:104CE0000C3033B9012DC5D1A3784BB9FFF796FE2F
:104CF00008E06FF00400C2E70129BBD1002AF5D11A
:104D0000FFF744FE0028BAD1B4E76FF00100B6E720
:104D10006FF01900B3E700BFDC210024E421002478
:104D200000B54FF00073AFB050220193202301A8CB
:104D300013930523CDE9023204930223CDE9053311
:104D40000023CDE90833079302F0E4FF2FB05DF8AC
:104D500004FB00002DE9F0430E469BB0002840F014
:104D60006081B14C2578002D40F05981AF4B4FF058
:104D700002094FF00A0811A9D3F8D4200427AC483F
:104D800042F48042C3F8D420D3F8D42002F4804205
:104D90000192019ADA6F42F48042DA67DA6F22F404
:104DA0008042DA67D3F8E02042F02002C3F8E02026
:104DB000D3F8E02002F020020292029AD3F8E02019
:104DC00042F00202C3F8E020D3F8E02002F0020231
:104DD0000392039AD3F8E02042F04002C3F8E020A7
:104DE000D3F8E02002F040020492049AD3F8E020C5
:104DF00042F00802C3F8E020D3F8E02002F00802F5
:104E00000592059AD3F8E02042F00802C3F8E020AA
:104E1000D3F8E02002F008020692069AD3F8E020C8
:104E200042F01002C3F8E020D3F8E02002F01002B4
:104E30000792079AD3F8E02042F00802C3F8E02076
:104E4000D3F8E02002F008020892089AD3F8E02094
:104E500042F00802C3F8E020D3F8E02002F0080294
:104E60000992099AD3F8E02042F00802C3F8E02042
:104E7000D3F8E02002F008020A920A9AD3F8E02060
:104E800042F04002C3F8E020D3F8E02002F04002F4
:104E90000B920B9AD3F8E02042F00802C3F8E0200E
:104EA0000122D3F8E03003F008030C930C9B40235D
:104EB000CDE911390323CDF85480CDE9132300F057
:104EC0000DFC11A95B4811971395CDF8548000F0A3
:104ED00005FC4FF480631395092511A956481193D9
:104EE000159500F0FBFB4FF4006311A95348119393
:104EF000159500F0F3FB4FF4805311A94F4811931F
:104F0000159500F0EBFB11A94D4811972027159539
:104F100000F0E4FB4FF4005311A948481193159594
:104F200000F0DCFB102311A944481193CDF8548004
:104F300000F0D4FB11A941481197CDF8548000F03E
:104F4000CDFB4FF4007311A939481193159500F06A
:104F5000C5FB802311A939481193CDF8548000F086
:104F6000BDFB11A8FFF71FF8119BCDF8389093FAFD
:104F7000A3F30BB1B3FA83F7002332480D970F93D5
:104F800073781093FFF7CCFE20B16FF003001BB0D5
:104F9000BDE8F0830DA92B48FFF794FD02460028D9
:104FA000F3D101462748FFF7A4FA024610B16FF08B
:104FB0000400ECE701462348FFF7D4FA0246002834
:104FC000F5D101211F48FFF794FA02460028EED1DF
:104FD00001211C48FFF7C6FA0028E8D10122194830
:104FE0001146FFF786FA0028E1D101221548114643
:104FF000FFF7B8FA0028DAD10123A07064202380DB
:1050000000F09AF9A27861780E48FEF7E5FF0028D3
:10501000CDD172783178FFF71BFE0028C7D1002070
:10502000B5E76FF00100B2E7DC210024004402582C
:10503000001802580004025800140258000C0258CC
:1050400000100258E42100242DE9F0410C4688B0FC
:10505000002863D10B685A1EB2F5F07F5ED24A6811
:10506000511EB1F5887F59D2934228BF1346E2689A
:105070009A4253D870232B4D019002A9ADF81030FD
:105080002846294B0293294B0393294B0693294B1E
:105090000593294B0793FEF7F1FE28B14FF0FF353A
:1050A000284608B0BDE8F08101A92846FEF74CFE6D
:1050B0000028F3D1019B512BF0D1204B2846204FE3
:1050C000DFF884803D60C8F800301B6898470546CB
:1050D0000028E3D1236802A91A4E38683360636858
:1050E0007360A368B360E368F360D8F80030DB69ED
:1050F000984700280FDB039B22683361049B61689B
:105100007361E3681A440B4401320133B261736284
:10511000C6E90723C4E76FF00405C1E76FF0010596
:10512000BEE700BF4422002471460008D9450008AC
:105130005549000821490008894900082000002439
:105140006C22002470220024982200242DE9FF41C3
:105150000C46002851D12A4B01A92A4A1B68106825
:105160001B699847002845DB274B0198D3F818C0E6
:105170001F6A00283AD09E68D3F810803207DDE914
:1051800002E14BBF0D46754672460A4616F0020F05
:105190001CBF08F1FF35A5EB0E05D3F814E0760728
:1051A0001E6848BFAEEB01027543596820604A4350
:1051B000D868B5FBF8F5B2FBFEF265456560A26004
:1051C0008CBFA5EB0C06ACEB0506BA428CBFD11B1D
:1051D000B91AB04201D3884205D29D611A620020FB
:1051E00004B0BDE8F081C4E901C7F8E7C4E9000CE8
:1051F000A760F5E76FF00400F2E76FF00100EFE75A
:10520000982200246C22002470220024224AD2F822
:10521000883043F47003C2F88830204A136803F0E2
:105220000F03062B05D8136823F00F0343F0070381
:1052300013601B4B1A6842F001021A6000221A61C7
:10524000184A19680A4015491A600A68120705D5F4
:105250000A6822F00F0242F007020A600022124997
:105260009A61DA611A6299621049D9621049196328
:105270005A639963DA6319645A64196821F48021C6
:1052800019601A6643F2D2020A4B1A604FF00062AC
:10529000014B9A60704700BF00ED00E00020005213
:1052A000004402587FEDF6EA000202020000FF010E
:1052B000800201010040005210B5032000F04EF8BA
:1052C00002F002FA0F49104A8B69C3F30323D35C3F
:1052D00003F01F03D8408B6903F00F03D35C0B4A24
:1052E00003F01F0320FA03F31360094B186000203A
:1052F000FCF756FA044618B9FBF78CFE204610BDA1
:105300000124FBE700440258A0D101085400002406
:1053100050000024034A044B11681B780B441360AF
:10532000704700BFFC71002458000024014B18682E
:10533000704700BFFC71002438B50446FFF7F6FF44
:105340000546631C1EBF044B1B78E418FFF7EEFFF5
:10535000431BA342FAD338BD580000240749030277
:10536000CA6803F4E06322F4E0621204120C1343EF
:1053700043F0BF6343F40033CB60704700ED00E0BF
:10538000164B30B5DC68C4F30224C4F10705231DB5
:10539000042D28BF0425062B4FF0FF338CBF033CA0
:1053A000002403FA05F5002803FA04F321EA0501B5
:1053B00022EA030201FA04F141EA02034FEA03136D
:1053C000DBB206DB00F1604000F5614080F800339D
:1053D00030BD00F00F00024A1354F9E700ED00E081
:1053E00014ED00E0002808DB0123420900F01F0053
:1053F00003FA00F0014B43F82200704700E100E09F
:10540000BFF35F8F044A536A23F480335362002250
:10541000024B5A60704700BF00ED00E090ED00E0E5
:10542000064A40F00100064B5860536A43F480334B
:105430005362BFF34F8FBFF36F8F704700ED00E0F3
:1054400090ED00E04378124A10B593600178D9B12D
:105450004368D360C37A047B1B0643EA04730B439F
:10546000817A43EAC143417B43EA8143817B43EA3A
:105470004143C17B43EA0143417A43EA0123017A74
:1054800043EA4103136110BDD1601161FBE700BF26
:1054900090ED00E010B5044608B9012010BD437F2F
:1054A00003F0FF0213B90277FBF7CCFD0223637709
:1054B0002379E3B92368134A5A619A6822F01802E3
:1054C0009A6062792368D2B94FF0FF321A610020E6
:1054D0009A68616922F060020A43A1699A609A6839
:1054E00022F080020A439A6001236377D6E7D4E969
:1054F0000212204600F008F80028E2D0CDE7226929
:10550000E4E700BFB71DC1041F2310B5013B06D35C
:1055100021FA03F4E407F9D5082A14D002D83AB1E5
:1055200001200DE0102A0CD0182AF9D1062BF7D84B
:1055300000684161836823F018031A4382600020E9
:1055400010BD072BF3E70F2BF1E710B50446002839
:1055500036D090F8613003F0FF021BB980F860206C
:10556000FBF788FD0223E069626884F861302368F4
:105570000243A069196821F4E02121F040010A43A7
:105580001A60596BA26821F48371024321F0010172
:105590000A43E1685A631A6C120C12040A431A6433
:1055A000596BD4E9040221F44011520542EA005239
:1055B00000200A435A630123606684F8613010BDFD
:1055C0000120FCE770477047036870B55E680446C9
:1055D0001D68F20714D5E90512D51A6822F4807205
:1055E0001A60426E42F00102426601229A60042370
:1055F00080F86130002380F86030436A03B1984737
:10560000B20616D5AB0414D523681A6822F40052EA
:105610001A6020229A60636E43F0020363660423DB
:1056200084F86130002384F86030636A0BB120464F
:105630009847300716D5290514D523681A6822F42F
:1056400000621A6008229A60636E43F00403636686
:10565000042384F86130002384F86030636A0BB15E
:105660002046984772070BD56B0509D5236820465D
:105670001A6822F480621A6004229A60FFF7A2FF7F
:10568000B00714D5A90512D523681A6822F4007250
:105690001A6002229A60636E6366012384F86130A7
:1056A000002384F86030236A0BB120469847F20645
:1056B00013D5EB0411D5236820461A6822F48052D2
:1056C0001A6010229A60636E6366012384F8613069
:1056D000002384F86030FFF776FF70BD2DE9F74FA7
:1056E00000234FF0B049DFF8BCE10A6832FA03F456
:1056F00002D103B0BDE8F08F4FF0010C0CFA03FCAF
:105700001CEA020200F0B7804D684FEA4308032606
:1057100005F0030406FA08F6671EF643012F34D895
:10572000876807EA060ACF6807FA08F747EA0A0710
:105730008760476827EA0C0CC5F300179F4047EACB
:105740000C074760C768022C07EA060C8F6807FA47
:1057500008F747EA0C07C76019D14FEAD30A03F0EC
:10576000070B4FF00F0C00EB8A0A4FEA8B0BDAF8AD
:1057700020700CFA0BFC27EA0C0C0F6907FA0BF7E8
:1057800047EA0C07CAF8207001E0032CDAD1076859
:1057900004FA08F415F4403F06EA070646EA040650
:1057A000066068D03D4E03F003074FF00F0CD6F8AB
:1057B000F440BF0044F00204C6F8F440D6F8F440C8
:1057C00023F0030606F1B04604F0020406F58066F5
:1057D0000194019C0CFA07F4D6F8088028EA040C1E
:1057E0002F4CA04249D004F58064A04247D004F574
:1057F0008064A04245D004F58064A04243D004F503
:105800008064A04241D004F58064A0423FD004F5FA
:105810008064A0423DD004F58064A0423BD004F5F2
:105820000064A0420CBF09240A24BC40EF024FF0E0
:10583000B04744EA0C04B4606FEA0206D9F80040AD
:1058400054BF344014433C607C68AF0254BF3440C2
:105850001443AF03C9F80440DEF8044054BF344099
:105860001443ED03CEF80440DEF8004054BF34404A
:105870001443CEF80040013337E70024D5E7012474
:10588000D3E70224D1E70324CFE70424CDE705249E
:10589000CBE70624C9E70724C7E700BF0044025846
:1058A00000000258800000582DE9F04F0022494DB9
:1058B000DFF82891DFF828A1DFF828B131FA02F3E8
:1058C00001D1BDE8F08F012303FA02FE1EEA0107B1
:1058D0006ED022F0030402F0030C0F263E4B04F1BD
:1058E000B0444FEA8C0C984206FA0CF6D4F80884BF
:1058F00004F5806406EA08085CD003F580639842EA
:105900005AD003F58063984258D003F580639842DB
:1059100056D003F58063984254D0484554D0504542
:1059200054D0584554D003F5A05398420CBF0923D6
:105930000A2303FA0CF3434518D12B6823EA070323
:105940002B606B6823EA07036B604FF0B043D3F81A
:1059500004C02CEA070CC3F804C0D3F800C02CEA3A
:1059600007071F60A36823EA0606A6600326530004
:10597000046802F0070C06FA03F30F274FEA8C0CB9
:105980001C4307FA0CF7046022FA06F400EB8404C7
:10599000266A26EA07072762C46824EA0304C4606B
:1059A000446824EA0E044460846824EA03038360A4
:1059B000013283E70023BCE70123BAE70223B8E7FB
:1059C0000323B6E70423B4E70523B2E70623B0E7D1
:1059D0000723AEE780000058000002580014025868
:1059E00000180258001C02580369194214BF012014
:1059F000002070470AB1816170470904FBE74369E1
:105A000001EA030221EA030141EA02418161704790
:105A100003689A69910701D500229A629A69D207B0
:105A200003D49A6942F001029A61704730B5039D30
:105A3000C1F3090104682B43606843EA0243054A45
:105A40000B4342EA555223F0004320EA020003438D
:105A5000636030BDFF63FF032DE9F843036804462C
:105A6000884617469D6915F0100579D0102200264A
:105A70004FF02009DA6123689A69950636D40EB191
:105A8000042539E0B8F1FF3FF6D0FFF74FFCC01B0B
:105A9000404502D8B8F1000FEDD12368596894F859
:105AA00042209869D2B200040AD5490408D4202AB9
:105AB00006D05A6842F480425A60FFF737FC074626
:105AC00023689D6915F02005D5D1FFF72FFCC01B79
:105AD0001928F5D9636C012684F8405043F020035F
