:020000040800F2
:10000000000005244D1D0008591C00085B1C000859
:100010005D1C00085F1C0008611C00080000000057
:1000200000000000000000000000000031A90008EE
:10003000631C000800000000C1A9000855A20008C8
:100040009D1D00089D1D00089D1D00089D1D0008A8
:100050009D1D00089D1D00089D1D00089D1D000898
:100060009D1D00089D1D00089D1D00089D1D000888
:100070009D1D00089D1D00089D1D00089D1D000878
:100080009D1D00089D1D00089D1D00089D1D000868
:100090009D1D00089D1D00089D1D00089D1D000858
:1000A0009D1D00089D1D00089D1D00089D1D000848
:1000B0009D1D00089D1D00089D1D00089D1D000838
:1000C0009D1D00089D1D00089D1D00089D1D000828
:1000D0009D1D00089D1D00089D1D00089D1D000818
:1000E0009D1D00089D1D0008000000009D1D0008CA
:1000F0009D1D0008651C00089D1D00089D1D000831
:100100009D1D00089D1D00089D1D00089D1D0008E7
:100110009D1D00089D1D0008711C00089D1D000804
:100120009D1D00089D1D00089D1D00089D1D0008C7
:100130009D1D00089D1D00089D1D00089D1D0008B7
:1001400000000000000000000000000000000000AF
:100150009D1D00089D1D00089D1D00089D1D000897
:100160009D1D00089D1D00089D1D00089D1D000887
:100170009D1D00089D1D00089D1D00089D1D000877
:100180009D1D00089D1D00089D1D00089D1D000867
:100190009D1D00089D1D00089D1D00089D1D000857
:1001A0007D1C00089D1D0008891C0008000000003F
:1001B0009D1D00089D1D00089D1D00089D1D000837
:1001C0009D1D00089D1D00080000000000000000AB
:1001D00000000000000000009D1D0008000000005D
:1001E000000000000000000000000000000000000F
:1001F00000000000000000009D1D00089D1D00087B
:100200009D1D00089D1D0008000000009D1D0008A8
:100210009D1D00089D1D00089D1D00089D1D0008D6
:100220009D1D0008000000009D1D0008000000004A
:100230009D1D00089D1D0008000000009D1D000878
:100240009D1D00089D1D00089D1D00089D1D0008A6
:100250009D1D00089D1D00089D1D00089D1D000896
:100260009D1D00089D1D00089D1D00089D1D000886
:100270009D1D00089D1D00089D1D00080000000038
:100280009D1D00089D1D00089D1D00089D1D000866
:10029000000000009D1D00089D1D00089D1D000818
:1002A0009D1D00089D1D00089D1D00089D1D000846
:1002B0009D1D00089D1D00089D1D00089D1D000836
:0C02C0009D1D0008951C00089D1D0008F5
:1002D00010B5054C237833B9044B13B10448AFF380
:1002E00000800123237010BD48010024000000009D
:1002F000C0D3010808B5034B1BB103490348AFF352
:10030000008008BD000000004C010024C0D301089B
:1003100001F0FF01102A2BDB10F0070F08D010F8B6
:10032000013B013A8B422DD010F0070F42B3F6D1BA
:10033000F0B441EA012141EA014122F007047FF0D3
:1003400000070023F0E80256083C85EA010586EA2A
:10035000010685FA47F5A3FA87F586FA47F6A5FA66
:1003600087F68EB9EED1F0BC01F0FF0102F0070272
:1003700032B110F8013B013A83EA010313B1F8D11D
:100380000020704701387047002D06BF35460338FE
:10039000073815F0010F07D1013015F4807F02BF37
:1003A000013015F4C03F0130F0BC0138704700BF88
:1003B00081F0004102E000BF83F0004330B54FEA16
:1003C00041044FEA430594EA050F08BF90EA020F83
:1003D0001FBF54EA000C55EA020C7FEA645C7FEA16
:1003E000655C00F0E2804FEA5454D4EB5555B8BF39
:1003F0006D420CDD2C4480EA020281EA030382EAAA
:10040000000083EA010180EA020281EA0303362D3B
:1004100088BF30BD11F0004F4FEA01314FF4801C0E
:100420004CEA113102D0404261EB410113F0004F20
:100430004FEA03334CEA133302D0524263EB4303D7
:1004400094EA050F00F0A780A4F10104D5F1200E75
:100450000DDB02FA0EFC22FA05F2801841F10001D0
:1004600003FA0EF2801843FA05F359410EE0A5F1A4
:1004700020050EF1200E012A03FA0EFC28BF4CF0D5
:10048000020C43FA05F3C01851EBE37101F000458B
:1004900007D54FF0000EDCF1000C7EEB00006EEB98
:1004A0000101B1F5801F1BD3B1F5001F0CD3490822
:1004B0005FEA30004FEA3C0C04F101044FEA445279
:1004C00012F5800F80F09A80BCF1004F08BF5FEA00
:1004D000500C50F1000041EB045141EA050130BDE0
:1004E0005FEA4C0C404141EB0101013C28BFB1F5F2
:1004F000801FE9D291F0000F04BF01460020B1FA3D
:1005000081F308BF2033A3F10B03B3F120020CDA0F
:100510000C3208DD02F1140CC2F10C0201FA0CF0ED
:1005200021FA02F10CE002F11402D8BFC2F1200C52
:1005300001FA02F120FA0CFCDCBF41EA0C01904008
:10054000E41AA2BF01EB0451294330BD6FEA040451
:100550001F3C1CDA0C340EDC04F11404C4F120023C
:1005600020FA04F001FA02F340EA030021FA04F34E
:1005700045EA030130BDC4F10C04C4F1200220FAA5
:1005800002F001FA04F340EA0300294630BD21FAE3
:1005900004F0294630BD94F0000F83F4801306BFA9
:1005A00081F480110134013D4EE77FEA645C18BF9D
:1005B0007FEA655C29D094EA050F08BF90EA020F34
:1005C00005D054EA000C04BF1946104630BD91EA2C
:1005D000030F1EBF0021002030BD5FEA545C05D12F
:1005E0004000494128BF41F0004130BD14F580046E
:1005F0003CBF01F5801130BD01F0004545F0FE41E2
:1006000041F470014FF0000030BD7FEA645C1ABF16
:10061000194610467FEA655C1CBF0B46024650EA4D
:10062000013406BF52EA033591EA030F41F4002179
:1006300030BD00BF90F0000F04BF0021704730B5FF
:100640004FF4806404F132044FF000054FF00001D4
:1006500050E700BF90F0000F04BF0021704730B595
:100660004FF4806404F1320410F0004548BF40426A
:100670004FF000013EE700BF42004FEAE2014FEABF
:1006800031014FEA02701FBF12F07F4393F07F4F9A
:1006900081F06051704732F07F4208BF704793F09D
:1006A0007F4F04BF41F40021704730B54FF46074B0
:1006B00001F0004521F000411CE700BF50EA0102B3
:1006C00008BF704730B54FF000050AE050EA01025C
:1006D00008BF704730B511F0004502D5404261EBCC
:1006E00041014FF4806404F132045FEA915C3FF40D
:1006F000D8AE4FF003025FEADC0C18BF03325FEAAA
:10070000DC0C18BF033202EBDC02C2F1200300FA5A
:1007100003FC20FA02F001FA03FE40EA0E0021FA7F
:1007200002F11444BDE600BF014900200BF068BA95
:100730008D21000808B5642009F00FFEFBE70000DA
:10074000014B1870704700BF9401002410B59CB095
:100750004C22002109A81BF045FE2022002101A8FF
:100760001BF040FE042007F067FD002300931E4BA2
:100770009A6922F440429A619A6902F440420092D6
:10078000009A9A699104FCD5184A0024302109A8DE
:10079000936A23F0030343F00203936201224FF4B0
:1007A00080331B94CDE909230223CDE9123314933E
:1007B000CDE917330C23CDE91512CDE9193407F033
:1007C00079FD03213F23082201A80394CDE90131DB
:1007D0004023CDE904234FF480620693CDE907233B
:1007E00008F066F81CB010BD0048025800440258DA
:1007F00000B5AFB0902200210AA81BF0F3FD4FF026
:100800000072052350218020CDE901230223CDE988
:100810000313CDE905330023CDE907030993202312
:1008200001A8139308F0CAFA2FB05DF804FB70B565
:1008300050F822600C68049DA41B2C440C6040F806
:10084000225094FBF3F070BD0D4B9FED0E7AD3ED6B
:10085000006AC6EE877AB7EE087AF4EEC77AF1EE50
:1008600010FA03D5084B094A1A607047A1BFDFEDA3
:10087000086A054B87EEA67A83ED007A704700BFC1
:1008800064010024DB0FC9402C0000248FC2F53C1A
:10089000000048420A4B9FED0B7AD3ED007AF4EE4C
:1008A000C77AF1EE10FA02DD83ED007A7047F5EEBB
:1008B000C07AF1EE10FA44BF00221A60704700BF00
:1008C0006401002463149D4307EE900A9FED067AAD
:1008D000DFED066AF8EE677A054B67EE877A87EEFA
:1008E000A67A83ED007A7047DB0FC94000007042A2
:1008F00020000024154BD0ED047A93ED007AD0ED62
:10090000026AE7EE007A90ED037A114B93ED006AEC
:10091000F4EE667AF1EE10FA76FEA77AB4EE677A14
:10092000F1EE10FA77FE277AC0ED047AE6EE007A4F
:10093000F4EE676AF1EE10FA48BFF0EE667AB4EEB4
:10094000677AF1EE10FA37FE270A70470400002498
:10095000080000240368094A93420DD15B6A084AE3
:1009600007EE103ABAEECF7B1360064AB7EEC77BAC
:100970001360054B83ED007A704700BF00E0004034
:1009800084010024A80100249C01002407EE900AA1
:100990000B4B9FED0C7A0022F8EE677A83ED000A8C
:1009A000094B67EE877A1860084BC3ED007A41F275
:1009B0008833B3FBF0F0064B1860064B1A607047A3
:1009C0002C000024DB0FC940240000242000002458
:1009D00038000024800100240A4BFCEEC07A9FED11
:1009E0000A7A0022C3ED000A084BC3ED007AC7EE75
:1009F000007A074BFCEEE77AC3ED007A054B1A60EC
:100A0000704700BF2C00002400409C4524000024B7
:100A1000380000248001002408B50C21094809F0A1
:100A200069FB0C21084809F065FB0021074809F023
:100A300061FB074808F066FF3C210648BDE8084016
:100A400008F0A6BFB4700024EC6E0024BC6F002434
:100A5000B4710024687100242DE98048A3B01022ED
:100A60000021012515A800241BF0BCFC1C2705F063
:100A70001BFD4FF01051D84B15A8ADF8545003266C
:100A8000CDE91613D54B189305F030FD4FF0E04338
:100A900015A88DF85F401693ADF862408DF855505B
:100AA0008DF85C7005F022FD022315A88DF85F60BB
:100AB0008DF8553016238DF85C3040F20113ADF8F7
:100AC000623005F013FD4FF0104315A88DF85F401C
:100AD0001693ADF8624004248DF855608DF85C7073
:100AE00005F004FD192315A88DF855408DF85C30EC
:100AF0008DF85F608DF8625005F0F8FC204605F037
:100B0000E3FCB74B5A6912F4003211D1BFF34F8F97
:100B1000BFF36F8FC3F85022BFF34F8FBFF36F8FB8
:100B20005A6942F400325A61BFF34F8FBFF36F8F9F
:100B3000AB4A536913F4803323D1C2F88430BFF336
:100B40004F8FD2F8803043F6E074C3F3C900C3F38B
:100B50004E335B0103EA0406014646EA817501391A
:100B6000C2F86052F9D2203B13F1200FF2D1BFF34B
:100B70004F8F536943F480335361BFF34F8FBFF3FB
:100B80006F8F05F0EDFB0024FFF7E0FD0126FFF776
:100B90002FFE1422002115A81BF024FC914B4FF4CA
:100BA00000419148D3F8E0204FF480674FF00C0AE1
:100BB0004FF0030942F002028C4D4FF005084FF050
:100BC000040BC3F8E020D3F8E02002F00202009208
:100BD000009AD3F8E02042F04002C3F8E020D3F8B6
:100BE000E02002F040020192019AD3F8E02042F0A6
:100BF0000802C3F8E020D3F8E02002F008020292D5
:100C0000029AD3F8E02042F01002C3F8E020D3F8B3
:100C1000E02002F010020392039AD3F8E02042F0A1
:100C20000102C3F8E020D3F8E02002F001020492B0
:100C3000049AD3F8E02042F08002C3F8E020D3F811
:100C4000E02002F080020592059AD3F8E02042F0FD
:100C50000402C3F8E020D3F8E02002F00402069278
:100C6000069AD3F8E02042F02002C3F8E0200022E8
:100C7000D3F8E03003F020030793079B05F00EFF45
:100C800000224FF480615A4805F008FF01220C2130
:100C9000584805F003FF4FF4004315A95248CDE929
:100CA0001536CDE9174405F06DFD15A95048CDE97D
:100CB0001576CDE9174405F065FD15A94D48179641
:100CC000CDF86090CDE915A605F05CFD4A484B4B88
:100CD000848003600662C0E9054405F02FFC4FF4F0
:100CE00040334748474AC0E90264C0E9002305F0A1
:100CF00080FC3422214615A81BF074FB424B2821AE
:100D0000352040F2152C40F2352EAC862C6185F84A
:100D10003640C5E900340923C5E905130B23C5E9AD
:100D2000070340F21B132846C5E909C340F21D130F
:100D3000C5E90244C5E90BE306F004FBFF214FF4CB
:100D400088734FF4F07228461C9715940227ADF86B
:100D500084408DF886402D4DCDE91A144FF0E041C6
:100D6000CDE91F23CDE91D81CDE9162415A9224621
:100D70004FF02008CDE9183606F0AFFB18232146C6
:100D800015A81A461BF02EFB214A2846AC606C635E
:100D90002C64C5E9002B4FF08072C5E903280822B6
:100DA000C5E90574C5E90974C5E90E24C5E9074418
:100DB000C5E90B4406F014FD4FF0011215A92846B1
:100DC000189202F57F021796199241F28832CDE906
:100DD000156606F08FFF1DE01200000301000101FF
:100DE00000ED00E00044025800180258087000248A
:100DF000000C025800080258986F0024004C02585A
:100E0000007100240010005200100050386F0024C0
:100E100000500052284606F059FD40F201122046CB
:100E2000A34DADF8382004F0F9FE0EA9204604F0D9
:100E3000E5FF204604F0BAFE1823214615A81A46FD
:100E40001BF0D0FA102221460AA81BF0CBFA21464B
:100E500014220EA81BF0C6FA964A18232846AC6046
:100E6000EC63C5E9002B4FF08062C5E905B4C5E924
:100E700003234FF0805B1723C5E90BB34FF4C8730E
:100E80004FF0800BC5E909742B64C5E90744C5E937
:100E90000D44CDE9084406F0A3FC874B41F28832AB
:100EA00015A9189303F57F03284617971993CDE9E1
:100EB000157706F01FFF062341F288320AA928465B
:100EC000CDF828900D966027CDE90B3406F060FD33
:100ED0004FF4405341F288320EA910934FF0005363
:100EE00028460E9412930F94119606F077FD0DEBA1
:100EF00008012846089406F089FE1C2221460EA807
:100F00000C946E4DCDE90A441BF06CFA3422214654
:100F100015A81BF067FA6A4B2846C5F808806C6173
:100F2000C5F818B0C5E9003447F27F03C5E90334BA
:100F300008F0EEFE0AA928460C94CDE90A4409F00F
:100F4000DBF852460EA9284610941494CDE90E768B
:100F5000CDE9124408F0A8FF4FF4005215A9284625
:100F600019941D942194CDE91A244FF00072CDE913
:100F70001544CDE91E24CDE9174409F00FF92846A0
:100F800000F0B0FD4F4D21461C2215A81094CDE96C
:100F90000E441BF027FA47F27F034B4A2846C5F858
:100FA0000880C5F818B0C5E90334C5E9002408F085
:100FB000AFFE0EA928460E94109409F09DF85246F3
:100FC00015A9284617941994CDE9157608F06CFFF9
:100FD000284600F087FD3D4D21461C2215A810949F
:100FE000CDE90E441BF0FEF947F27F03384A28464C
:100FF000C5F80880C5F818B0C5E90334C5E9002470
:1010000008F086FE0EA928460E94109409F074F894
:10101000224615A9284617941994CDE9157608F0AB
:1010200043FF284600F05EFD2A482B4B2B4D846081
:101030008461C0E900344EF2FF03C0E9033408F0D4
:1010400037FE274B15A928461094AC60AC611D945F
:10105000C5E900344FF0FF33CDE90E44C5E9033450
:10106000CDE91594CDE91764CDE91944CDE91B64A8
:1010700008F07EFE0EA928460E94109409F03CF864
:1010800000F08DFEFFF7C8FC09F0F2F8154A214682
:10109000154809F019F9154B154A214618601548ED
:1010A00009F012F9144B186009F0F4F8FEE700BFDC
:1010B0000072002400A0005202000100B47000245D
:1010C00000000140EC6E002400080040BC6F0024CA
:1010D000000C0040B471002400200040687100241E
:1010E00000E0004058D4010835070008E86E0024ED
:1010F00034D40108A31D0008B070002400000000D3
:1011000002688B4B9A422DE9F04F05462DED048B7A
:1011100085B040F0E880874B874AD3ED009A984627
:10112000D2F800A0F5EE409A844A854ED2F800909D
:10113000F1EE10FA834A176800F0E080824BB6EEB9
:10114000009A346893ED008ADFED807AB8EE488A21
:101150007F4B28EE278A07EE904A0134F8EE677A33
:1011600028EE278AD3ED007A7A4B28EE278AD3ED32
:10117000008AF8EE688AB0EE480A1AF0E5FFF0EE51
:10118000497A20EE290AE0EE097A9FED730A38EEDB
:10119000000A68EEA77AFCEEE77ACAED107A1AF038
:1011A000D3FFF0EE497A29EE800AE0EE097A9FED4E
:1011B0006B0A38EE000A68EEA77AFCEEE77AC9ED12
:1011C000107A1AF0C1FF29EE800A654A3460A0EE59
:1011D000099A1268944228EE899ABCEEC99A87ED62
:1011E0000D9A00F293805F4A136803920133C82B73
:1011F000136040F08D80DFF8A891DFED5B5AD9EDE8
:10120000007A9FED520A67EEA57A584B584F594E17
:1012100087EE807A584AD6ED007ADFF888A1DFF8A9
:1012200088B1564C564957489FED3D4B9FED3E6B5C
:1012300083ED007A97ED007A534B37EE677AF3EE41
:10124000097A27EE277A83ED007AB7EEC77AA7EE00
:10125000046BB7EEC67BFDEEC77AC2ED007A17EEDF
:10126000903AC7EE257A67EE807AC4ED007A009353
:10127000DBF80030DAF80020FFF7D9FA434BDBF84F
:101280000020F0EE405A1860DAF800300133934243
:10129000CAF80030A4BF0023CAF800303C4B1B78CA
:1012A000012B1BD1D4ED007A99ED000A394830EEBC
:1012B000670AFFF71FFBD4ED007A374937EE800A43
:1012C00081ED000AFFF7E6FAFFF7BEFA91ED000A9A
:1012D000D8ED000A80EE250AFFF77EFB3B68039AF3
:1012E0003360002313602A682C4B9A4210D105B05A
:1012F000BDEC048BBDE8F04F05F060B80023CAF8E0
:101300004030C9F840307B6333606CE70023FBE773
:1013100005B0BDEC048BBDE8F08F00BFAFF30080DB
:10132000623FD532631BB23F00000000008021C045
:10133000002000402C000024B4700024EC6E002437
:1013400080010024BC6F002424000024DB0FC9406E
:101350003400002430000024920A0640920A86409D
:10136000380000248801002400007042A4010024F9
:101370009C01002490010024A001002468010024A5
:10138000B00100246C010024AC0100248C01002475
:10139000940100240C00002464010024001000408B
:1013A0002000002498010024280000247047000039
:1013B0000A4B82B00F216FF00100D3F8F42042F005
:1013C0000202C3F8F4200022D3F8F43003F0020341
:1013D0000193019B02B005F027B800BF00440258FA
:1013E000026882B0094B9A420DD1A3F50063D3F88D
:1013F000E02042F40022C3F8E020D3F8E03003F408
:1014000000230193019B02B0704700BF004C0258BB
:101410000F4B07B502689A4217D10E4B05215A208F
:10142000D3F8D42042F01002C3F8D4200022D3F81D
:10143000D43003F010030193019B04F0F5FF5A2010
:1014400003B05DF804EB05F021B803B05DF804FBD0
:1014500000100052004402582DE9F041BAB0044691
:101460001422002108A81AF0BDFFB42200210DA803
:101470001AF0B8FF2268774B9A4240F0E8804FF0AC
:10148000005319211E200D934FF49073CDE91613CC
:101490000223CDE918334FF44063CDE91A0300234A
:1014A0000DA8CDE91C3307F089FC08B1FFF77EFFDA
:1014B000694B002402260325D3F8E4200E2708A94F
:1014C000664842F008024FF05808C3F8E420D3F809
:1014D000E42002F008020092009AD3F8E02042F0E3
:1014E0000202C3F8E020D3F8E02002F002020192E9
:1014F000019AD3F8E02042F00802C3F8E020D3F8C4
:10150000E02002F008020292029AD3F8E02042F0B2
:101510001002C3F8E020D3F8E02002F0100203929A
:10152000039AD3F8E02042F00102C3F8E020D3F898
:10153000E02002F001020492049AD3F8E02042F085
:101540004002C3F8E020D3F8E02002F04002059208
:10155000059AD3F8E02042F08002C3F8E020D3F8E7
:10156000E02002F080020692069AD3F8E02042F0D2
:101570000402C3F8E020D3F8E0300C9703F0040332
:101580000793079B40F20333CDE90A45CDE90836BE
:1015900005F0F8F8492308A931480C97CDE9083639
:1015A000CDE90A4505F0EEF84BF6030308A92D48EE
:1015B0000C97CDE90836CDE90A4505F0E3F84FF47C
:1015C000807308A92848CDE908360D23CDE90A45DE
:1015D0000C9305F0D7F84FF4814308A923480C97E2
:1015E000CDE90836CDE90A4505F0CCF848F6087390
:1015F00008A91F480C97CDE90836CDE90A4505F042
:10160000C1F8C02308A91B480C97CDE90836CDE9DD
:101610000A4505F0B7F808A913480C97CDE90886E4
:10162000CDE90A4505F0AEF8102308A91048CDE928
:1016300008360923CDE90A450C9305F0A3F8404686
:101640002246052104F0F0FE404604F01FFF3AB0A8
:10165000BDE8F08100100050004402580004025818
:10166000000C0258001002580000025800180258DE
:10167000001C0258000802582DE9F04391B00446BE
:10168000142200210BA81AF0ADFE2368894A934268
:1016900040F0B180884A13680133012B13600CD1EC
:1016A000864BD3F8D42042F40012C3F8D420D3F8E8
:1016B000D43003F400130093009B804B02260025D6
:1016C0000324D3F8D42009270BA97D4842F4804293
:1016D0004FF00A084FF00409C3F8D420D3F8D420FF
:1016E00002F480420192019AD3F8E02042F04002D5
:1016F000C3F8E020D3F8E02002F040020292029A00
:10170000D3F8E02042F00802C3F8E020D3F8E0204C
:1017100002F008020392039AD3F8E02042F010028C
:10172000C3F8E020D3F8E02002F010020492049AFB
:10173000D3F8E02042F02002C3F8E020D3F8E02004
:1017400002F020020592059AD3F8E02042F002024E
:10175000C3F8E020D3F8E03003F002030693069BC1
:101760004FF40073CDE90B36CDE90D540F9705F01A
:1017700009F8B0230BA95348CDF83C80CDE90B36CE
:10178000CDE90D5404F0FEFF0BA94F480F97CDE9AA
:101790000B96CDE90D5404F0F5FF40230BA9484802
:1017A000CDF83C80CDE90B36CDE90D5404F0EAFFCD
:1017B0004FF460530BA943480F97CDE90B36CDE9A1
:1017C0000D5404F0DFFF4FF480630BA93F480F97DF
:1017D000CDE90B36CDE90D5404F0D4FF0BA93C48FC
:1017E000CDF83C80CDE90B96CDE90D5404F0CAFF4D
:1017F00011B0BDE8F083374A9342F9D12E4A1368FD
:101800000133012B13600CD12C4BD3F8D42042F4BC
:101810000012C3F8D420D3F8D43003F40013079394
:10182000079B264B032402260025D3F8D420092742
:101830000BA9234842F40022C3F8D420D3F8D420C3
:1018400002F400220892089AD3F8E02042F0400205
:10185000C3F8E020D3F8E02002F040020992099A90
:10186000D3F8E02042F02002C3F8E020D3F8E030C3
:101870000F9703F020030A930A9B40F60303CDE978
:101880000D54CDE90B3604F07DFF4FF4A0530BA9A6
:101890000B480F94CDE90B36CDE90D5404F072FFDF
:1018A00041F21F030BA909480F97CDE90B36CDE98B
:1018B0000D549BE700500052B4010024004402582C
:1018C00000180258000C0258001002580014025868
:1018D0000004025800A00052274A08B5036893424A
:1018E0002AD1264B1A68013A1A60254B2AB9D3F837
:1018F000D42022F40012C3F8D420D3F8D4204FF41B
:101900001071204822F48042C3F8D42005F020F85A
:1019100043F6B0011C4805F01BF804211B4805F0F4
:1019200017F84FF480611A4805F012F8042119489D
:10193000BDE8084005F00CB8174A93421AD10F4B86
:101940001A68013A1A600E4B2AB9D3F8D42022F44F
:101950000012C3F8D420D3F8D42041F6034109483B
:1019600022F40022C3F8D42004F0F2FF41F21F0158
:101970000748DDE708BD00BF00500052B401002455
:101980000044025800180258000C02580010025877
:10199000001402580004025800A00052036884B0EA
:1019A000194A93420ED1194BD3F8F02042F00102AC
:1019B000C3F8F020D3F8F03003F001030193019B4A
:1019C00004B07047124A93420DD1104BD3F8E8206F
:1019D00042F00402C3F8E820D3F8E83003F004032F
:1019E0000293029BECE70B4A9342E9D1074BD3F8F1
:1019F000E82042F00802C3F8E820D3F8E83003F00A
:101A000008030393039BDBE70000014000440258F6
:101A100000080040000C00400F4B07B502689A42D6
:101A200017D10E4B05212D20D3F8E82042F4807207
:101A3000C3F8E8200022D3F8E83003F48073019360
:101A4000019B04F0F1FC2D2003B05DF804EB04F0E1
:101A50001DBD03B05DF804FB0020004000440258A7
:101A600010B588B004461422002103A81AF0BAFC6D
:101A70002268194B9A422DD1184B002403A918480B
:101A8000D3F8EC2042F08072C3F8EC20D3F8EC20BD
:101A900002F080720192019AD3F8E02042F0200215
:101AA000C3F8E020C022D3F8E03003F02003029313
:101AB000029B0223CDE903230D23CDE905440793BF
:101AC00004F060FEA1202246052104F0ADFCA12017
:101AD00004F0DCFC08B010BD00E0004000440258F7
:101AE0000014025810B588B004461422002103A83F
:101AF0001AF078FC23682B4A93421CD12A4B4FF4EE
:101B0000804003A9D3F8E02042F01002C3F8E0209F
:101B1000D3F8E03003F010030093009B0223CDE9DB
:101B2000030300232148CDE905330123079304F083
:101B300029FE08B010BD1E4A934218D11A4B4FF42B
:101B400000411C48D3F8E02042F00802C3F8E0202E
:101B50000022D3F8E03003F008030193019B022335
:101B6000CDE90522CDE90313079303A9DFE7124A64
:101B70009342DED10C4B03A91048D3F8E02042F089
:101B80000102C3F8E0200122D3F8E03003F00103A2
:101B90000293029B0223CDE9032300220793CDE9A0
:101BA0000522C4E70000014000440258001002581A
:101BB00000080040000C0258000C004000000258D1
:101BC0000F2810B504468AB002D901200AB010BD12
:101BD00001460022362004F027FC362004F056FC93
:101BE000184B694602A81C60174BD3F8E82042F056
:101BF0001002C3F8E820D3F8E83003F01003019393
:101C0000019B06F0C1FF079BC3B906F099FF0F4C7B
:101C10000F4B236040F2E733E3600E4BB0FBF3F071
:101C200001380023606020462361A36008F040F87B
:101C30000028CAD1204607F065FEC7E706F080FFFE
:101C40004000E4E780000024004402586072002451
:101C50000010004040420F007047FEE7FEE7FEE73D
:101C6000FEE77047014807F005BF00BFB4710024CC
:101C7000014807F0FFBE00BF60720024014805F074
:101C8000CFBB00BF08700024014804F0F1BC00BFC6
:101C900000710024014807F0EDBE00BF6871002408
:101CA0000120704708B51AF043FB162303604FF07C
:101CB000FF3008BD08B51AF03BFB16230360FEE7B2
:101CC00070B50E4614460025A54201DB204670BDC6
:101CD000AFF3008070550135F6E770B50E46144637
:101CE0000025A54201DB204670BD705D0135AFF3D4
:101CF0000080F6E74FF0FF3070474FF400530020AC
:101D00004B60704701207047002070470B4B024624
:101D1000196810B509B90A491960186809490A4CC7
:101D20000244091B8A4206D91AF002FB0C23036005
:101D30004FF0FF3010BD1A60FCE700BFB80100246F
:101D4000507300240000052400100000DFF834D098
:101D500004F0B0FA002103E00B4B5B584350043110
:101D60000A480B4B42189A42F6D30A4A02E0002373
:101D700042F8043B084B9A42F9D31AF0F1FAFEF705
:101D80006BFE704700000524442202080000002476
:101D900048010024480100244C730024FEE700F0B1
:101DA0008FBC00F0FDBC4068704741607047000088
:101DB000094A136843F080731360A2F54E42074B43
:101DC00052F84C1C4C3A0B431360A2F57B6213682B
:101DD00043F0010313607047FCED00E055CEACC545
:101DE000511A01EB5301B1FBF3F07047014B186836
:101DF000704700BF041000E0704710B504460C2186
:101E00001AF04EF9204610BD036810B51B69044650
:101E100031B19847A26863689B1A1844606010BD8E
:101E20009847A060FBE770471FB50823002069466C
:101E3000CDE90230054B1B880093054B1B880193AD
:101E400004F056F905B05DF804FB00BF666C002491
:101E5000686C002410B5044604211AF021F92046CC
:101E600010BD30B585B000200D46144601A9039081
:101E7000CDE9010004F0BEF940B14FF0500383F307
:101E80001188BFF36F8FBFF34F8FFEE7019820B12A
:101E9000029B01202B60039B236005B030BD000036
:101EA00010B1012809D07047074B08211A68B2FA0F
:101EB00082F25209054804F0F1BD034B04215A682F
:101EC000B2FA82F25209F5E7BC0100240008025878
:101ED00010B1012809D07047074B08211A68003A51
:101EE00018BF0122054804F0D9BD034B04215A68EC
:101EF000003A18BF0122F5E7BC010024000802588F
:101F000010B1012804D070470821024804F0CBBD6D
:101F10000421FAE70008025808B530B1012809D0B9
:101F20000020431E5842584108BD0821024804F0D1
:101F3000AFFDF6E70421F9E70008025870B5084D37
:101F400000240126E0B2FFF7E7FF18B12B68012B50
:101F500018BF2E6001340435052CF3D170BD00BFCD
:101F6000BC010024012380F8741080F8753070479C
:101F70000020704700207047836B0BB1084618475C
:101F800070474FF6FF707047406803689B691847B9
:101F90007047000038B5044600F0ACFC0A4A4FF028
:101FA000E04123682046D3F88450084BA84704F149
:101FB0007C05FFF7C3FF2846FFF7FAFE01232561E2
:101FC00084F86C3038BD00BF0000067000000C7053
:101FD00008B531B90A4B4FF42B710A4A0A481AF076
:101FE00075F9C0E90F12003A0849436418BF01228D
:101FF000003B0A7018BF0123054A137008BD00BFDB
:10200000BCD40108F4D4010842D501086A6C00244C
:102010006B6C002408B5094B1B888B4203D8084B16
:102020001B88934205D9074B9E21074A07481AF09F
:102030004DF9074B1980074B1A8008BD606C0024CE
:10204000626C002487D50108EAD5010842D5010851
:10205000666C0024686C002408B503680446DB6FD6
:102060009847236820465B6F984700F0E7F823689D
:102070002046DB6E984701224FF48061074804F048
:102080000DFD01224FF40041054804F007FD00F06A
:10209000D5F823682046DB6E9847F8E7000C025815
:1020A0000018025810B504460BF096FB2368204632
:1020B000D3F8A430BDE81040184700F00DBC00F084
:1020C00011BC000070B500F06DFC104A0023C2F88E
:1020D0008430BFF34F8FD2F8803043F6E074C3F3FF
:1020E000C900C3F34E335B0103EA0406014646EA26
:1020F00081750139C2F87452F9D2203B13F1200FD7
:10210000F2D1BFF34F8FBFF36F8F70BD00ED00E0D2
:1021100000F0BEBB00F068BC00F052BC00F0C2BBD7
:102120000AF012BD10B50446882119F0B9FF204607
:1021300010BD90F877301BB1406803681B681847E2
:102140001846704790F834100D4B10B590F8744055
:102150001A788C4209D03AB90A490B4A088814887F
:10216000108001220C801A7010BD002AFCD0064A93
:102170000449148808880C8010800022F3E700BF0F
:10218000646C0024626C0024606C0024014608B575
:10219000034B186801B101210BF038FB012008BD89
:1021A0006C6C00240121002208B5084608F0E1F813
:1021B0000A4B186028B90A4B28210A4A0A481AF023
:1021C00085F800220421012008F072F9074B1860FD
:1021D00018B9074B2C21034AF0E708BDD0010024B1
:1021E00000D7010849D7010878D70108CC0100249D
:1021F000D2D70108024B4FF0FF31186808F004B93C
:10220000D0010024014B186808F02AB9D00100243D
:10221000024B0021186808F0F7B800BFD001002475
:10222000FFF7F0BF0023034803491A46006808F08F
:102230007BB900BFCC0100243C00002413B500236F
:10224000074C01A91A46206808F09EF94FF0FF33A9
:10225000002201A9206808F097F902B010BD00BF64
:10226000CC01002403685B6C1847012070470368A9
:102270009B6A184740F2EF3070470000024B1B6822
:10228000586803685B6918476C6C002408B50B2814
:102290000BD8DFE800F01206100A0A0A0A0808083C
:1022A0000808012008BD0520FCE7054B6621054A0A
:1022B00005481AF00BF80020F4E70220F2E700BF0F
:1022C00014D801082FD8010879D8010808B50A28C0
:1022D00009D8DFE800F010060E0808080806060610
:1022E0000600012008BD054B8721054A054819F065
:1022F000EDFF0020F6E70220F4E700BF14D8010844
:10230000D1D8010879D801082DE9F84391F81D804A
:102310000C464046FFF7BAFFA77F05463846FFF751
:10232000B5FF06463846FFF7D1FFA18A628B4C4BBA
:10233000521A9E461A649A61228B521A1A61E28AD4
:10234000586342EA014221695A646268D963DA60DB
:10235000D4F800C094F81C90BCF1800F4FEA0962D9
:1023600029D013D8BCF1200F45EA020067D0BCF198
:10237000400F64D0BCF1040F5DD02A43384BB84500
:1023800042F40032DA6167D0364A40E0BCF5807F23
:1023900007D0BCF5007FF0D142F4003242F00902D0
:1023A00003E042F4003242F00A02DA61E2681A62A3
:1023B0005E6259612AE02A43A06842F40032DA6181
:1023C000021D5E625961DA62027842B1012A20D0B0
:1023D000254B40F20111254A254819F077FF428824
:1023E0000124D969501E21F47F4222F0100242EAF2
:1023F0000022DA611A4BDA6942F02002DA61DA6906
:102400009206FCD410229A60002CBDD0194A1A60A2
:1024100020E04288B9F1FF04D96902F1FF3018BF0A
:10242000012421F47F4222F0100242EA002242F00D
:102430001002DA61DEE740F40030D861B8E740F41A
:1024400000300C4BCEF81C00CEF82460CEF81410EF
:10245000CEF80030BDE8F88340F20122D7E700BF94
:1024600000100052010201001CD9010836D90108F0
:1024700079D801080102020038B50C46887FFFF7C1
:1024800025FF124BA58AE18A628B41EA0541586318
:10249000521B59642169D9631A642568082D0ED12D
:1024A0009A611A6158620A4A207F42EA0062DA6140
:1024B000E2681A62074A5961D9601A6038BD002281
:1024C000D8611A61E2689A63034AF6E70010005285
:1024D000090001000102020001020300054B4FF058
:1024E00080620360044BC3F88820BFF34F8FBFF3B3
:1024F0006F8F70477CD9010800E100E010B50446F9
:10250000FFF7ECFF4FF44261204619F0C9FD204669
:1025100010BD00000F4B82B0D3F8D42042F010025F
:10252000C3F8D420D3F8D42002F010020192019A0B
:10253000DA6F42F01002DA67DA6F22F01002DA671F
:10254000054B064A1A62064B4FF080629A6002B051
:10255000704700BF00440258007100247D2200082B
:1025600000E100E070B504460A4B0C300026254619
:10257000602260602672667245F8203B29460BF0A7
:10258000ADFA04F54263EE602035AB42FBD1204644
:1025900070BD00BF7CD90108012070470C20704736
:1025A0000C2303FB0100083070470C2303FB0100E0
:1025B00008307047012070474FF4E26070474FF4D5
:1025C000E26303FB0100083070474FF4E26303FB52
:1025D000010008307047012070471020704700EB61
:1025E00001100830704700EB0110083070470846B2
:1025F00000F014BB034B10B50446036009F0D6FF8E
:10260000204610BD34DA010810B50446FFF7F2FF8A
:102610001421204619F044FD204610BD034B10B58F
:102620000446036009F0C2FF204610BD00DA01082D
:1026300010B50446FFF7F2FF4FF4E361204619F0AE
:102640002FFD204610BD0000034B10B5044603606B
:1026500009F0ACFF204610BDCCD9010810B50446E6
:10266000FFF7F2FF1821204619F01AFD204610BD91
:10267000084B10B50446036000F24470FFF7BAFF40
:1026800004F12C00FFF7CAFF04F11400FFF7DCFF90
:10269000204610BD68DA010808B50248FFF7E8FFD8
:1026A00008BD00BFD801002410B50446FFF7E0FFC5
:1026B00040F6B401204619F0F3FC204610BD00009E
:1026C0002DE9F34100F0ECF90024054600F0ECF9A7
:1026D0002346014622462846009411F0D1F9254BA5
:1026E000254A2046254D1A6002F08CF8244811F046
:1026F00009F92B78BFF35B8FDB0735D4284619F037
:10270000D1FC88B31F4C204B04F25C7604F114001A
:1027100004F12C0804F2447723606060C4F8088058
:10272000E760266109F044FF184B4046636109F0F9
:102730003FFF174B3846E36209F03AFF154B04F5AB
:10274000EB60C4F8443702F0DDF8224604F5EB6193
:10275000304602F0CDF8304600F060FA284619F015
:10276000ADFC0D4819F0D0FD0C4802B0BDE8F041B9
:10277000FFF710BCC86C002438170024D4010024D3
:1027800040000024D801002468DA0108CCD90108EF
:1027900000DA010834DA010899260008B01600248E
:1027A0000148FFF759BC00BFB016002470B5274E92
:1027B000274B284C3046284D2360FFF7D3FE284690
:1027C00013F0B2FB254B00224FF4807124481A8588
:1027D00083F82A20DA621A861A6683F86C201A6750
:1027E000DC60C3E912121F49C3E919124FF080716E
:1027F0005967012183F878101B490B604FF4F07181
:1028000001801A48C3E90422C3E90622C3E9082269
:10281000C3E90E22C3E91022C3E91422C3E9162238
:10282000C3E9016501804FF488711148C3F8802025
:102830000180104883F8342001800F49C3F88420B8
:102840000A700E490E4A1960DA6770BD900A0024BA
:10285000ACD401088C0A00243C170024B0160024D4
:10286000606C0024010000016C6C0024666C002484
:10287000626C0024686C0024646C002438D6010863
:1028800084D401080148FFF729BE00BF900A002444
:10289000034B902283F85A2383F85823704700BFD4
:1028A00000E100E0094A0A49D3680A48C3F30A0371
:1028B000013B9BB20B801169C1F30A010139018010
:1028C0001364536B43F001035363704700100050CF
:1028D0009617002494170024014B986A704700BF94
:1028E00084100050024B0122996243F8602C70471B
:1028F0008410005070B504460AF07BF923681D6E01
:102900000DF022FF01462046A84723682046054ACD
:10291000D3F884504FF0E0410023AC46BDE870404E
:10292000604700BF000006700AF04AB90AF054B9C7
:102930000AF06DBA104A002370B5C2F88430BFF3B4
:102940004F8FD2F8803043F6E074C3F3C900C3F36D
:102950004E335B0103EA0406014646EA81750139FC
:10296000C2F87452F9D2203B13F1200FF2D1BFF319
:102970004F8FBFF36F8F70BD00ED00E0034B5B69BD
:10298000DB0301D5FFF7D6BF704700BF00ED00E0C5
:10299000034B5B69DB0301D5FFF7CCBF704700BF7A
:1029A00000ED00E008B50AF0D5F8044B5B69DB03E5
:1029B00003D5BDE80840FFF7BDBF08BD00ED00E04E
:1029C000084B4FF08062C3F88820BFF34F8FBFF3EE
:1029D0006F8F4FF08072C3F88820BFF34F8FBFF323
:1029E0006F8F704700E100E0034B4FF080629A6008
:1029F0004FF080729A60704700E100E0134B144A78
:102A00001B6C11888B4210B5124C13D1124B1988D4
:102A100004F090FD226892F86630013382F8663047
:102A2000FFF700FC20680AF0D7FE0020BDE8104048
:102A3000FFF736BA04F07EFD0020FFF749FA206860
:102A40000368BDE810401B6A184700BF0010005023
:102A5000961700246C6C002494170024704710B55E
:102A60000446042119F01CFB204610BD08B50329BB
:102A700013D8DFE801F002060A0E01F00FFF00682C
:102A800008BD01F00BFF4068FAE701F007FF80681E
:102A9000F6E701F003FFC068F2E70020F0E700006E
:102AA0000048704788DA01080D20704713B50024EC
:102AB00051B1036801AA01948DF803409C680DF19F
:102AC0000303A04702B010BD0846FBE740897047EA
:102AD000808970478088704783798088184480B2E5
:102AE0007047C07900F07F007047C079C009704717
:102AF000704710B50446082119F0D2FA204610BDDF
:102B0000704700F596730868496803C370477047BB
:102B100070474160704770470123037270477047E8
:102B2000704710B441680346C2689B68541001EBBB
:102B30006200D20748BF0A595DF8044B48BFD3581A
:102B4000184743682BB183682BB9C06800F00100B7
:102B50007047184670470120704710B504460C2195
:102B600019F09EFA204610BD10B50446102119F048
:102B700097FA204610BD10B504464FF4AC7119F019
:102B80008FFA204610BD10B50DF0DEFD0368BDE8DC
:102B900010401B6B184710B50446D0F83C0158B1E3
:102BA0000368DB68984738B1D4F83C0103689B6838
:102BB00098470023C4F83C3110BD0000F8B5044626
:102BC00017460E460DF0E2FD104B00251C6029460D
:102BD0000F4BC4E954760F4E236030680E4BC4E9A6
:102BE0005255C4E950350368C4E94E559B6898476F
:102BF000284601F007FE336893F876200AB1D86CB6
:102C000000B9986814F07DFA2046F8BDB86C00242D
:102C1000E0DF01086C6C0024C8DF0108064BC0F837
:102C20004401C0F848310023C0F84C3100F5A073CE
:102C3000C0F83C31704700BF9D2D0008064BC0F81E
:102C40004401C0F848310023C0F84C3100F5A073AE
:102C5000C0F83C31704700BF052F00082DE9F84F40
:102C6000074690689946884603681446DDF828A010
:102C70001B6A9847B0F5E26F05D2424BA321424A46
:102C8000424819F023FB606803681B6A98470F28C5
:102C900003D83F4BA4213C4AF2E7E06803681B6A73
:102CA00098470B2803D83B4BA521374AE8E70DF09E
:102CB0004BFD0DF04FFDD9F8000010B10368DB6843
:102CC0009847D9F8000010B103681B689847386826
:102CD00010B103685B699847D8F8000010B1036829
:102CE0005B689847386810B103681B689847D8F844
:102CF000000010B103689B689847E06800214FF01E
:102D0000000B03685B6A9847234B0546C0F804B084
:102D10000360594680F808B0A06803685B6A98476A
:102D2000064601F0D1FE6068594603685B6A984721
:102D30000446314601F0F8FDC9F80050C8F80040DB
:102D40003E60E4B1231DCAF8003030463368C4F851
:102D500008A0DB68F4639847236820461B689847FF
:102D6000294630460FF0DEF82B6828461B69984745
:102D70002B6828465B6998472046BDE8F88F2346B4
:102D8000E1E700BF9CDB01082ADC01082EDD010819
:102D900075DD010818DE010824E00108D0F854317F
:102DA00007B500F59C710093044BD0F850210448FE
:102DB000FFF754FF03B05DF804FB00BFAC6C0024C8
:102DC000A86C00242DE9F84F07469068994688467C
:102DD00003681446DDF828A01B6A984740F2236375
:102DE000984205D8414BA321414A424819F06EFA56
:102DF000606803681B6A98470F2803D83E4BA421DC
:102E00003B4AF2E7E06803681B6A98470B2803D83F
:102E10003A4BA521364AE8E70DF096FC0DF09AFCF6
:102E2000D9F8000010B10368DB689847D9F80000B2
:102E300010B103681B689847386810B103685B6974
:102E40009847D8F8000010B103685B689847386865
:102E500010B103681B689847D8F8000010B10368E8
:102E60009B689847E06800214FF0000B03685B6A9D
:102E70009847234B0546C0F804B00360594680F8D4
:102E800008B0A06803685B6A9847064601F018FF1F
:102E90006068594603685B6A98470446314601F00A
:102EA0009FFEC9F80050C8F800403E60E4B1231D01
:102EB000CAF8003030463368C4F808A0DB68F46311
:102EC0009847236820461B689847294630460FF0EC
:102ED00029F82B6828461B6998472B6828465B69A8
:102EE00098472046BDE8F88F2346E1E79CDB0108C0
:102EF000BBDE01082EDD010875DD010818DE0108C2
:102F000024E00108D0F8543107B500F59C71009316
:102F1000044BD0F850210448FFF754FF03B05DF88C
:102F200004FB00BFAC6C0024A86C0024006A70474E
:102F3000406A704770478B888069DB0A0A6850F8DE
:102F400023001044704710B5C2B1137BB3B1547B5A
:102F5000D27A240204F4E0641443C26998B202EB0A
:102F6000840213888B4202D192F9020010BD05D869
:102F70000138043280B20028F3D1F7E70020F5E7EA
:102F800010B50446282119F08BF8204610BD00002A
:102F900030B589B00446BDF850500695BDF84C5088
:102FA00005959DF8405004959DF83C5003959DF87B
:102FB000385002959DF8345001959DF83050009599
:102FC0000EF0EEFB064B20462360119BA361129B83
:102FD000E361159B2362169B636209B030BD00BF9D
:102FE00048E001080020704781807047C180704729
:102FF0000181704741817047704770477047704743
:10300000704710B4C4880368121B84881B6D091BA9
:1030100012B25DF8044B09B218474FF6FF73838173
:103020004FF0FF3303621368C3611060704770474D
:10303000704770477047704790F825201AB190F894
:10304000242002B11860704770477047704770477E
:1030500070477047704770477047704770477047B8
:1030600070477047704770477047704770477047A8
:10307000704730B444680346C2689B68551004EB3F
:103080006200D20748BF625930BC48BFD3581847C6
:1030900043682BB183682BB9C06800F0010070470A
:1030A000184670470120704710B50446102118F0EB
:1030B000F7FF204610BD10B504464FF4E26118F04A
:1030C000EFFF204610BD00F19803994210B5044669
:1030D00004D10368DB6DBDE81040184700F1E00340
:1030E000994202D103681B6BF5E700F5947399428E
:1030F00002D10368DB6AEEE700F5B873994202D1AA
:1031000003689B6DE7E700F5DC73994202D1036821
:103110005B6DE0E700F50073994202D103681B6D17
:10312000D9E700F51273994202D10368DB6CD2E74C
:1031300000F52473994202D103689B6CCBE700F53C
:103140003673994202D103685B6CC4E700F548739B
:10315000994203D103681B6C2046BCE700F55A7303
:10316000994202D10368DB6BF6E700F56C73994274
:1031700002D103689B6BEFE700F57E73994202D1A1
:1031800003685B6BE8E700F29453994202D103684D
:103190001B6EE1E700F2DC53994202D103685B6EDB
:1031A000DAE700F21463994202D103689B6ED3E719
:1031B00000F24C63994202D10368DB6ECCE700F267
:1031C000B463994206D10DF0BFFAFFF737FD2368CB
:1031D0001B6FC1E710BD0000074A02600022C0E972
:1031E0000122C0E90322C0E90522C0E907224FF409
:1031F00080728284704700BFB0F90108036870B51F
:103200000446DB6A154698472368204629461B6B0F
:10321000BDE87040184770B504461D46BDF9106002
:10322000FFF7ECFF2368294620465B6B984723682D
:10323000314620469B6BBDE87040184710B50446E8
:103240002622002119F0CEF82046FFF7C5FF044BD7
:1032500020462360FF2384F826300023A36210BD9C
:10326000ACF3010873B54FF6FF73018F0646994220
:1032700033D01C4B1B682BB91B4BAE211B4A1C487F
:1032800019F024F81B4A12888A4203D81A4BAF213E
:10329000164AF4E713F81120184B1B6853F8225014
:1032A000174B186801F0EAFA2B68014601909B6AF7
:1032B000284698472B68044601991B6C2846984776
:1032C00014FB00F42B682846E4B201995B6A984726
:1032D000044486F8454002B070BD002380F84530B4
:1032E000F9E700BFBC6C002498E00108DAE00108AF
:1032F00008E10108C06C00244FE10108C46C0024FF
:10330000C86C002410B504462622002119F06AF882
:103310002046FFF761FF074B4FF47F0220462360F2
:10332000054BA3624FF6FF73A3850023C4E90C325B
:10333000238710BD04F3010894DB010810B504468F
:103340002622002119F04EF82046FFF745FF002302
:10335000084A2046A36284F82C300123226084F8B6
:1033600024304FF6FF73E385238684F83230A3863A
:1033700010BD00BFF0F101082DE9F04F0446002612
:10338000EA4D4FF0080A04F55A7B4FF0090904F59D
:10339000E06805272DED108B95B00EF017FC224646
:1033A000E34BE66342F8403B104608EE102AFFF775
:1033B00045FF04F16C0318460A93FFF73FFF04F141
:1033C0009803184608EE903A0BF0CAFC04F1E003AB
:1033D000184609EE103A0BF0C3FC04F59473184636
:1033E00009EE903A0BF0BCFC04F5B87318460AEEEF
:1033F000103A0BF0B5FC04F5DC7318460AEE903A6F
:103400000BF0AEFC04F5007318460BEE103A0BF00F
:10341000A7FC04F5127318460BEE903A0BF0A0FCD3
:1034200004F5247318460CEE103A0BF099FC04F5E1
:10343000367318460CEE903A0BF092FC04F5487384
:1034400018460DEE103A0BF08BFC58460BF088FC3A
:1034500004F56C7318460DEE903A0BF081FC04F500
:103460007E7318460FEE103A0BF00EFB04F2344355
:1034700018460B93FFF7E2FE04F58D63C4F834544D
:103480001846C4F86064A4F864640C93FFF7D6FE91
:1034900004F29C43C4F86854C4F894641846A4F831
:1034A00098640FEE903AA34DFFF72CFF04F2DC4333
:1034B000C4F89C541846C4F8D8640393FFF722FF5D
:1034C00004F21C53C4F8DC54C4F818654FF4887532
:1034D00018460493FFF716FF04F5AB6318460593EF
:1034E000FFF710FF04F2945318460EEE103A0BF05B
:1034F00037FC04F2DC5318460693FFF71FFF04F273
:10350000146318460793FFF719FF04F24C6318463B
:1035100008930BF0B9FA04F5D16312A90EEE903AB4
:103520004FF6FF731EEE900AADF848300AF080FBAC
:1035300004F2B463184609930BF0A6FA7E4B3246A8
:103540003146C4F8003718EE100A7C4B0095C4F8D9
:1035500008374FF4F073C4F80447C4F80C67FFF75A
:103560005AFE4FF07F43324631460A98A3664FF425
:10357000F07300954FF0FF35FFF74DFE704B1022B2
:103580003146C4F8943018EE900AFFF737FE12AABD
:1035900011A918EE900AADF844A0ADF848900AF0D1
:1035A00073FF18EE900AA4F8D060FFF75BFE1022BC
:1035B0003C2119EE100AC4F8C080C4E93555FFF764
:1035C0001DFE11A912AA19EE100AADF844A0ADF81B
:1035D00048900AF059FF4FF0010219EE100AA4F8C2
:1035E0001821FFF73FFE1022782119EE900AC4F847
:1035F0000881C4E94755FFF701FE11A912AA19EE87
:10360000900AADF844A0ADF848900AF03DFF4FF0A5
:10361000020219EE900AA4F86021FFF723FE4C2263
:1036200031461AEE100AC4F85081C4E95955FFF723
:10363000E5FD11A912AA1AEE100AADF844A0ADF8E2
:1036400048900AF021FF4FF003021AEE100AA4F886
:10365000A821FFF707FE4C223C211AEE900AC4F87D
:103660009881C4E96B55FFF7C9FD11A912AA1AEE9A
:10367000900AADF844A0ADF848900AF005FF4FF06D
:1036800004021AEE900AA4F8F021FFF7EBFD4C2299
:1036900078211BEE100AC4F8E081C4E97D55FFF7DC
:1036A000ADFD12AA11A91BEE100AADF844A0ADF8A9
:1036B00048900AF0E9FE1BEE100AA4F83872FFF7F2
:1036C000D1FD882231461BEE900AC4F82882C4E955
:1036D0008F55FFF793FD11A912AA1BEE900AADF8C2
:1036E00044A0ADF848900AF0CFFE4FF006021BEE62
:1036F000900AA4F88022FFF7B5FD88223C211CEE39
:10370000100AC4F87082C4E9A155FFF777FD11A92A
:1037100012AA1CEE100AADF844A0ADF848900AF0C9
:10372000B3FE4FF007021CEE100A0BE0ECF40108A8
:10373000C4E1010844F40108ACE10108C730000805
:103740000E0E57FFA4F8C822FFF78CFD88227821BF
:103750001CEE900AC4F8B882C4E9B355FFF74EFDD9
:1037600012AA11A91CEE900AADF844A0ADF8489039
:103770000AF08AFE1CEE900AA4F810A3FFF772FD6F
:10378000C42231461DEE100AC4F80083C4E9C555B1
:10379000FFF734FD12AA11A91DEE100AADF844A0DE
:1037A000ADF848900AF070FE1DEE100AA4F8589388
:1037B000FFF758FDC4223C215846C4F84883C4E9A9
:1037C000D755FFF71BFD11A912AA5846ADF844A022
:1037D000ADF848900AF058FE4FF00A025846A4F897
:1037E000A023FFF73FFDC42278211DEE900AC4F804
:1037F0009083C4E9E955FFF701FD11A912AA1DEE56
:10380000900AADF844A0ADF848900AF03DFE4FF0A4
:103810000B021DEE900AA4F8E823FFF723FDC42253
:10382000B4211FEE100AC4F8D883C4E9FB55FFF792
:10383000E5FC12AA0FA91FEE100A009211AAADF81A
:103840004470134610AAADF84870ADF83CA0ADF82E
:1038500040900BF076F84FF00F027923F7210B9888
:10386000A4F830244FF01002C4F82084A4F83224C5
:10387000522200923A46FFF7CEFC4FF07F421C4B9B
:103880004FF4BA71C4F8602452220C98C4F85C3426
:103890006423A4F8647400923A46FFF7BCFC144B0E
:1038A000A4F898742822C4F890344FF07F43FF2185
:1038B0001FEE900AC4F89434232304F5DE670093C6
:1038C0006823FFF7A8FC0B4BC4F8CC541B68A4F882
:1038D000D0642BB9084BAE21084A094818F0F6FC11
:1038E000084B1B88102B11D8074BAF21034AF4E774
:1038F0000E0E57FFBC6C002498E00108DAE00108C6
:1039000008E10108C06C00244FE10108C84B1021F8
:10391000186800F0B3FFC74A0346032138460FF08A
:1039200029FE0E23C4F8D87412A9C34F1FEE900AC3
:10393000ADF84C3012970AF067FD1F232E224FF48A
:10394000BE71039800935423FFF765FC04F2F662FE
:10395000C4F80C550D92B94AA4F810651368002BF1
:10396000B8D0B74A1388112BBED9B14B11211868B2
:1039700000F084FFAF4A034604210D980FF0FAFDD2
:103980000D9B12A90398C4F818354FF00F03129736
:10399000ADF84C300AF038FD0F2204984FF4C9718D
:1039A000FFF72CFC0C2312A90498C4F84C55A4F87A
:1039B0005065ADF84C3012970AF026FD0F2205989D
:1039C000FF21FFF71BFC0D2312A90598C4F88855A9
:1039D000A4F88C65ADF84C3012970AF015FD1EEE78
:1039E000100A8822B4214FF00607FFF707FC12AA3D
:1039F00011A91EEE100AADF844A0ADF848900AF0E7
:103A000043FD12231EEE100AA4F8CC35FFF72AFC62
:103A1000C4F8D055C4F8D4554FF007050698622273
:103A200040F20311C4F8BC85FFF7E8FB12AA11A904
:103A30000698A4F81056ADF84850ADF844700AF056
:103A400023FD079862224FF4BB71C4F80486FFF788
:103A5000D5FB12AA11A90798A4F84856ADF848500A
:103A6000251DADF844700AF00FFD0898CA22F42114
:103A7000C4F83C86FFF7C2FB4FF00A0212AB0FA955
:103A8000ADF83C204FF00B020898ADF840204FF005
:103A900004020093ADF844204FF00102ADF8482035
:103AA00011AA134610AA0AF04CFF47234FF0100248
:103AB00012A91EEE900AA4F88436A4F88626C4F84B
:103AC0007486ADF848600BF006F8FA234A461EEEFD
:103AD000900AF12100930223FFF79DFB31461EEE71
:103AE000900A0AF06CF80998CA224FF4D071FFF7D7
:103AF00085FB4FF0030212AB0FA9ADF84420ADF8DF
:103B0000482011AA09980093134610AAADF83CA0CA
:103B1000ADF840900AF015FF162318EE101A28464B
:103B2000C4F8DC86A4F8EC364FF00F03A4F8EE36A8
:103B300008F0B8FD0A99284608F0B4FD18EE901A6E
:103B4000284608F0AFFD19EE101A284608F0AAFD25
:103B500019EE901A284608F0A5FD1AEE101A28460C
:103B600008F0A0FD1AEE901A284608F09BFD1BEE07
:103B7000101A284608F096FD1BEE901A284608F009
:103B800091FD1CEE101A284608F08CFD1CEE901AD0
:103B9000284608F087FD1DEE101A284608F082FD21
:103BA0005946284608F07EFD1DEE901A284608F07A
:103BB00079FD1FEE101A284608F074FD0B9928466F
:103BC00008F070FD0C99284608F06CFD1FEE901A65
:103BD000284608F067FD0399284608F063FD04991C
:103BE000284608F05FFD0599284608F05BFD1EEEAB
:103BF000101A284608F056FD0699284608F052FD8E
:103C00000799284608F04EFD0899284608F04AFD15
:103C10001EEE901A284608F045FD2846099908F03E
:103C200041FD204615B0BDEC108BBDE8F08F00BF04
:103C3000C86C0024A1E1010894DB0108BC6C0024DD
:103C4000C06C0024704770477047704770477047DA
:103C500070477047704770477047704770477047AC
:103C600070477047704730B444680346C2689B6829
:103C7000551004EB6200D20748BF625930BC48BF00
:103C8000D358184743682BB183682BB9C06800F03C
:103C900001007047184670470120704710B5044670
:103CA000102118F0FDF9204610BD10B504464FF460
:103CB000C46118F0F5F9204610BD00F1980399424F
:103CC00010B5044607D10CF03FFDFEF7A7FF2368AF
:103CD0001B6E204605E000F1D403994204D103682D
:103CE000DB6ABDE81040184700F58E73994202D197
:103CF00003681B6BF5E700F5B273994202D10368C4
:103D00005B6BEEE700F5D673994202D103689B6BBB
:103D1000E7E700F5FA73994202D10368DB6BE0E74D
:103D200000F50F73994202D103681B6CD9E700F5C7
:103D30002173994202D103685B6CD2E700F53373BB
:103D4000994202D103689B6CCBE700F54573994219
:103D500002D10368DB6CBCE700F55773994202D1CE
:103D600003681B6DB5E700F56973994202D10368DA
:103D70005B6DAEE700F57B73994202D103689B6DE2
:103D8000A7E700F5B863994202D10368DB6DA0E7AD
:103D900010BD00002DE9F04F04464FF0000AEB4E35
:103DA000082704F5697BEA4D4FF0020804F5C26963
:103DB0002DED108B8FB00DF009FF2246E54BC4F8B6
:103DC0003CA042F8403B104608EE102AFFF736FAB6
:103DD00004F16C0318460593FFF730FA04F19803D9
:103DE00018460EEE903A0AF04FFE04F1D40318463E
:103DF00008EE903A0AF0B4FF04F58E73184609EE07
:103E0000103A0AF0ADFF04F5B273184609EE903A85
:103E10000AF0A6FF04F5D67318460AEE103A0AF027
:103E20009FFF04F5FA7318460AEE903A0AF098FFDD
:103E300004F50F7318460BEE103A0AF091FF04F5E3
:103E4000217318460BEE903A0AF08AFF04F533739B
:103E500018460CEE103A0AF083FF04F54573184635
:103E60000CEE903A0AF07CFF04F5577318460DEEFD
:103E7000103A0AF075FF58460AF072FF04F57B739A
:103E800018460DEE903A0AF06BFF04F234430CA989
:103E90000EEE103A4FF6FF731EEE100AADF83030FA
:103EA00009F0C6FE04F58C6318460693FFF7C6F9C1
:103EB00004F29443C4F860641846C4F88CA4A4F8CF
:103EC00090A40FEE103AFFF71DFA04F2D443C4F8A1
:103ED00094541846C4F8D0A40FEE903AFFF712FAA3
:103EE00004F5A26318460793FFF7A8F904F24453B8
:103EF000C4F8106509261846C4F83CA5A4F840A5E6
:103F00000293FFF7FFF904F28453C4F84455C4F850
:103F100080A54FF4887518460393FFF7F3F904F56D
:103F2000B863184604930AF0AFFD8B4B52465146D6
:103F3000C4F8103618EE100A884B0095C4F81836ED
:103F40004FF4F073C4F81446C4F81CA6FFF763F9E5
:103F50004FF07F43524651460598A3664FF4F073E5
:103F600000954FF0FF35FFF756F97D4BCA2204212B
:103F70001EEE900AC4F89430FFF740F90CAA09A984
:103F80001EEE900A00920BAAADF8247013460AAAFE
:103F9000ADF82860ADF82C80ADF830800AF0D1FC87
:103FA0000F234FF0160240F21B1118EE900AA4F8EE
:103FB000D230A4F8D0201022C4F8C090FFF71EF928
:103FC0000CA918EE900AADF82C700A460BA9ADF8B2
:103FD00030600AF059FA132318EE900AA4F80C3155
:103FE000FFF740F9102240F2571119EE100AC4F8F9
:103FF000FC90C4E94455FFF701F90CA919EE100A29
:10400000ADF82C700A460BA9ADF830600AF03CFA06
:10401000142319EE100AA4F85431FFF723F91022E3
:1040200040F2931119EE900AC4F84491C4E9565530
:10403000FFF7E4F80CA919EE900AADF82C700A46C7
:104040000BA9ADF830600AF01FFA152319EE900A9B
:10405000A4F89C31FFF706F94C2240F21B111AEE2E
:10406000100AC4F88C91C4E96855FFF7C7F80CA989
:104070001AEE100AADF82C700A460BA9ADF83060A4
:104080000AF002FA4FF016021AEE100AA4F8E42120
:10409000FFF7E8F84C2240F257111AEE900AC4F8E4
:1040A000D491C4E97A55FFF7A9F80CAA0BA91AEE26
:1040B000900AADF82C70ADF830600AF0E5F91723DE
:1040C0001AEE900AA4F82C32FFF7CCF84C2240F2FA
:1040D00093111BEE100AC4F81C92C4E98C55FFF72B
:1040E0008DF80CAA0BA91BEE100AADF82C70ADF8D8
:1040F00030600AF0C9F918231BEE100AA4F87432D4
:10410000FFF7B0F8882240F21B111BEE900AC4F8AA
:104110006492C4E99E55FFF771F80CAA0BA91BEE37
:10412000900AADF82C70ADF830600AF0ADF91923A3
:104130001BEE900AA4F8BC32FFF794F8882240F2F4
:1041400057111CEE100AC4F8AC920BE0ECF4010815
:1041500044F4010858E2010840E20108BB3C0008B1
:104160000E0E57FFC4E9B055FFF748F80BA90CAA8B
:104170001CEE100AADF82C70ADF830600AF084F92E
:104180004FF01A021CEE100AA4F80423FFF76AF895
:10419000882240F293111CEE900AC4F8F492C4E90C
:1041A000C255FFF72BF80CAA0BA91CEE900AADF82C
:1041B0002C70ADF830600AF067F91B231CEE900AF2
:1041C000A4F84C33FFF74EF8C42240F21B111DEE49
:1041D000100AC4F83C93C4E9D455FFF70FF80CAAB1
:1041E0000BA91DEE100AADF82C70ADF830600AF086
:1041F0004BF91C231DEE100AA4F89433FFF732F894
:10420000C42240F257115846C4F88493C4E9E655D5
:10421000FEF7F4FF0CAA0BA95846ADF82C70ADF8C8
:1042200030600AF031F91D235846A4F8DC33FFF75B
:1042300019F8C42240F293111DEE900AC4F8CC93F1
:10424000C4E9F855FEF7DAFF0CAA0BA91DEE900A97
:10425000ADF82C700527ADF830600AF015F91E2373
:104260001DEE900AA4F82434FEF7FCFF0CA91EEE04
:10427000100AC4F82854C4F82C54C4F81494ADF8A7
:1042800030A00AF028FCFA2332464FF481711EEE6A
:10429000100A00934346FEF7BEFF51461EEE100A79
:1042A0004FF0230809F08BFC522279230421069851
:1042B00004F2FC5600921022FEF7ADFF984B332219
:1042C0000C21C4F888344FF07F431FEE100AA4F885
:1042D0009074C4F88C346823CDF80080FEF79BFFFF
:1042E000904BC4F8C4541B68A4F8C8A42BB98E4BD7
:1042F000AE218E4A8E4817F0E9FF8E4B1B881F2B8C
:1043000003D88D4BAF21894AF4E78C4B1F211868E5
:1043100000F0B4FA8A4A0346394630460FF02AF9CB
:10432000C4F8D064874E0CA91FEE100AADF8348093
:104330000C960AF069F81A2222211FEE900AFEF765
:104340005DFF20230CA91FEE900AC4F80455A4F8C1
:1043500008A5ADF834300C960AF056F852227923AD
:104360008321079800921022FEF755FF6C4A6823BC
:10437000CDF80080C4F838254FF07F428B21029899
:10438000C4F83C253322A4F8407504F20668FEF711
:1043900042FF644AC4F874551368A4F878A5002B4A
:1043A000A5D0644A1388212BABD9644B212118680E
:1043B00000F064FA624A0346394640460FF0DAF8E4
:1043C00024230CA90298C4F88085ADF834300C96EB
:1043D0000AF01AF81A2203989E21FEF70FFF2223F3
:1043E0000CA90398C4F8B455251DA4F8B8A5ADF8D8
:1043F00034300C960AF008F80498CA224A21FEF7D5
:10440000FDFE0A230AAA09A9ADF824300B2304985B
:10441000ADF828300423ADF82C300123ADF830304E
:104420000CAB00930BAB0AF08CFA472318EE101A72
:104430002846A4F8F8351023C4F8E895A4F8FA350E
:1044400008F030F90599284608F02CF91EEE901A6C
:10445000284608F027F918EE901A284608F022F9A5
:1044600019EE101A284608F01DF919EE901A284680
:1044700008F018F91AEE101A284608F013F91AEE87
:10448000901A284608F00EF91BEE101A284608F07C
:1044900009F91BEE901A284608F004F91CEE101AD0
:1044A000284608F0FFF81CEE901A284608F0FAF8A3
:1044B0001DEE101A284608F0F5F85946284608F06F
:1044C000F1F81DEE901A284608F0ECF81EEE101ACE
:1044D000284608F0E7F80699284608F0E3F81FEEAA
:1044E000101A284608F0DEF81FEE901A284608F049
:1044F000D9F80799284608F0D5F80299284608F017
:10450000D1F80399284608F0CDF82846049908F018
:10451000C9F820460FB0BDEC108BBDE8F08F00BF8E
:104520000E0E57FFBC6C002498E00108DAE0010889
:1045300008E10108C06C00244FE10108C86C0024A8
:10454000A1E1010894DB01087047000030B5154D6A
:104550008DB02C78BFF35B8F14F001041ED1284678
:1045600017F0A0FDD0B13F2301220F4907930F4B55
:104570000F4806930F4B089403940094CDE904432D
:104580000423CDE90944CDE901320A23FEF700FDF9
:10459000284617F093FD084817F0B6FE04480DB002
:1045A00030BD00BF98170024AC1E02089C200208F2
:1045B0009C170024B82002084945000870470000F5
:1045C00030B5154D8DB02C78BFF35B8F14F001041E
:1045D0001FD1284617F066FDD8B13F2301220F49AD
:1045E00007930F4B0F4806930F4B08940394CDE9A4
:1045F00004430423CDE90944CDE90132009310229C
:104600001423FEF7C5FC284617F058FD074817F09D
:104610007BFE04480DB030BDC4170024BC1E020848
:10462000A0200208C8170024BC200208BD450008CD
:104630007047000030B5154D8DB02C78BFF35B8FFF
:1046400014F001041FD1284617F02CFDD8B13F23E8
:1046500001220F4907930F4B0F4806930F4B089405
:1046600003940094CDE904430423CDE90944CDE942
:1046700001321E231122FEF78BFC284617F01EFD87
:10468000074817F041FE04480DB030BDF017002474
:104690009C1F0208B0200208F4170024C020020862
:1046A000314600087047000030B5154D8DB02C78AC
:1046B000BFF35B8F14F001041ED1284617F0F2FC03
:1046C000D0B13F2301220F4907930F4B0F480693A8
:1046D0000F4B089403940094CDE904430423CDE9DF
:1046E0000944CDE901322823FEF752FC284617F091
:1046F000E5FC084817F008FE04480DB030BD00BFC7
:104700001C1800248C200208B42002082018002461
:10471000C4200208A546000800207047002070470A
:104720000EB403B503AB002153F8042B01930CF036
:104730006BFE02B05DF804EB03B070470CB407B534
:1047400004AB53F8042B01930CF05EFE03B05DF84C
:1047500004EB02B070470000436C10B5044673B31D
:10476000038F2BB9184BC021184A194817F0AEFD1A
:10477000C38E00EB43035B8C0BB30EF043F9238F26
:10478000012B03D8134BC521134AEEE7E28E40F606
:104790003F10531C9BB2092B194688BFA3F10A0195
:1047A00004EB4101498C814209D10A2B04EB4202FE
:1047B00028BF0023508C04EB4303588451842046C7
:1047C000BDE810400EF002B8BCE20108C5E20108E5
:1047D00070E30108BAE30108C8E301080DF0AEBFB9
:1047E00010B586B002AC84E806001A460AAB214632
:1047F00005930193099B0093089B0BF0FFFA06B009
:1048000010BD000038B518BB124B13481B68134984
:10481000B3B11A689C681A441C4402605A681A446E
:104820000A600F4B00221A8000F038F8054600F0AD
:1048300033F80C4B1C600C4B1D600C4B188007E0D0
:104840000B4B03600B4B0B600B4B1C68002CE8D12F
:1048500038BD00BF481800244C180024501800240C
:1048600054180024BC6C0024C46C0024C06C0024C8
:104870005C210208C820020824220208044B1B689D
:1048800053F82100034B1B6803EB4000704700BF47
:10489000501800244C180024252070470048704709
:1048A0005818002410B5074CFFF7C4FE2060FFF72E
:1048B000FBFE6060FFF74AFEA060FFF781FEE0604C
:1048C00010BD00BF58180024704710B504464FF4BF
:1048D000AC7117F0E5FB204610BD10B50446D0F8CA
:1048E000540100F012F82046BDE810400BF000BE65
:1048F00010B50446FEF762F9014B2046236010BD57
:10490000A4E4010800220260704770477047043831
:104910007047704710B50446102117F0C1FB2046C0
:1049200010BDA0F10400F5E70022C1608260044AD6
:1049300010B502F1080420320460426010BD00BFCF
:10494000E0E4010870477047044A1378B3FA83F330
:104950005B0913700022024B1A7070477C18002408
:1049600068180024014B01221A707047681800244F
:10497000014B01221A70704769180024014B012273
:104980001A70704774180024FEF771BB08B50368ED
:104990001B6C9847034B9FED040A1868BDE808405C
:1049A000FBF7F4BF6C1800240000000010B50446AB
:1049B0004FF4E26117F074FB204610BD164B73B53F
:1049C0001A780446012A24D1144E3278012A20D1C3
:1049D0000025134A00F2146029461D7015700190DD
:1049E00009F0CCF801980CF031FE04F2DC502946B5
:1049F0003570019009F0C2F801980CF027FE094BC0
:104A000093ED000A084B186802B0BDE87040FBF750
:104A1000BDBF02B070BD00BF741800246918002427
:104A200068180024781800246C180024F0B51E4B78
:104A3000002585B004461D7000F214601B4B29460A
:104A40001B4F1D701B4B1C4E1D701C4B01901D609D
:104A5000002335603B6009F091F801980CF0F6FDF9
:104A600004F2DC502946019009F088F801980CF016
:104A7000EDFD3B68124A0421039304F2F66003AB98
:104A80000EF036FF33680F4A032104F5DE600EF0A6
:104A900071FD04F2DC400CF0D9FD04F29C400CF0F6
:104AA000D5FD05B0F0BD00BF6818002469180024CA
:104AB00078180024741800246C180024701800243E
:104AC00008E501080EE5010810B50446FEF754FCA0
:104AD000014B2046236010BD20E50108234B13B590
:104AE0001B780446012B31D1214A07EE901A214B45
:104AF000127893ED006AE2B9B8EEE77AF2EE047A42
:104B0000A6EE277A1C4A0A2083ED007A13688DED01
:104B1000017A00FB031101AB04F2F660116004217D
:104B2000164A0EF0E5FE04F2DC400CF08FFD02B0F8
:104B300010BDB8EEE74BB2EE045BB7EEC66A84EE8A
:104B4000057B37EE067BB7EEC77BDBE70C4A0A2016
:104B5000136800FB0313032104F5DE601360094AA8
:104B60000EF008FD04F29C40DFE700BF7C18002433
:104B700068180024781800247018002411E5010832
:104B80006C1800240EE501080921FFF7A7BF0821D2
:104B9000FFF7A4BF0021FFF7A1BF0321FFF79EBFCE
:104BA0000221FFF79BBF0121FFF798BF0621FFF706
:104BB00095BF0521FFF792BF0421FFF78FBF0721A3
:104BC000FFF78CBF704704387047704710B5044634
:104BD000102117F065FA204610BDA0F10400F5E79A
:104BE0000022C1608260044A10B502F1080420323C
:104BF0000460426010BD00BF98E50108704770472F
:104C0000FFF72FB80023084A052110B504461360AA
:104C100000F2FC50054A0EF0ADFC04F29440BDE8F1
:104C200010400CF013BD00BF801800240EE50108F1
:104C30000020FBF785BD000008B50120FBF780FDD3
:104C4000024B1868BDE80840FBF73EBE8018002400
:104C500008B503681B6D98470020FBF735FE9FEDF4
:104C6000030A0020BDE80840FBF790BE00000000EA
:104C700010B5044640F2246117F012FA204610BD28
:104C8000D0F8203601330A2B10B5044602D8C0F8FC
:104C9000203610BD0023084A052100F20660C0F846
:104CA0001A30064B1B680EF065FC04F24450BDE858
:104CB00010400CF0CBBC00BF0EE501088C010024B5
:104CC00010B50446FFF766F8034B20462360002327
:104CD000C4F8203610BD00BFC8E5010810B5044671
:104CE00008480A23026803FB0213074A05210360F0
:104CF00004F2FC500EF03EFC04F29440BDE810407B
:104D00000CF0A4BC801800240EE501080721FFF771
:104D1000E5BF0821FFF7E2BF0921FFF7DFBF04214C
:104D2000FFF7DCBF0521FFF7D9BF0621FFF7D6BF8C
:104D30000121FFF7D3BF0221FFF7D0BF0321FFF707
:104D4000CDBF0021FFF7CABF40F201134FF4F0724C
:104D500000200B8005238B704FF48873C1E9012379
:104D6000704790F82430012B04BF002380F82430D2
:104D7000002070470020704710B404690089A446E1
:104D80005DF8044B604710B4C4680089A4465DF820
:104D9000044B60472DE9204300F118088946097843
:104DA000404600F0FBF8054699F80410404600F034
:104DB00001F9054499F80810404600F007F9054448
:104DC00099F80C10404600F00DF9054499F81010C0
:104DD000404600F013F9054499F81410404600F0DD
:104DE00019F9C54214BF4FF0FF300020BDE8208301
:104DF000183000F027B970B500F1180588B00C46DE
:104E00002846694600F0BDF898BB9DF80030052B98
:104E100098BF184620601E236A460321284600F0EA
:104E20009DF848BB6B46221D04F118011D7806331E
:104E300013F8056C2C02AD0904F47064344313F8C4
:104E4000036C42F8044B914213F8044C95634FEA0B
:104E5000042404F4706444EA0604146113F8024C58
:104E6000546213F8014C4FEA1414D464DED108B034
:104E700070BD4FF0FF30CDE74FF0FF30F7E718304F
:104E800000F07AB80121183000F0D0B800211830B5
:104E900000F0CCB810B590F8243004466BB9036824
:104EA00098472046FFF7F2FF00384FF0010318BF84
:104EB000012084F82430404210BD0020FCE700208F
:104EC000704737B500F118050C4601A9284600F0D7
:104ED00058F808BB9DF80430052B98BF18460423EA
:104EE0002060032128460DEB030200F037F8B0B92B
:104EF0009DF804309DF805201B0203F470631343F2
:104F00009DF8072063609DF806301B0203F4706370
:104F10001343A36003B030BD4FF0FF30DFE74FF025
:104F2000FF30F7E790B14A680B6842600A89036076
:104F30000281CA68C2600A6902614A69006242610C
:104F4000044AC261044A826103B118474FF0FF303E
:104F5000704700BF794D0008874D000810B4D0E9B4
:104F60000140A4465DF8044B604710B404688068B3
:104F7000A4465DF8044B604701230A461946FFF733
:104F8000EDBF10B50A460C4601230221FFF7E6FFEC
:104F900018B9237803F00F03237010BD07B5012360
:104FA0008DF807100DF107029121FFF7DEFF03B026
:104FB0005DF804FB07B501238DF807100DF107021A
:104FC0009221FFF7D2FF03B05DF804FB07B5012380
:104FD0008DF807100DF107029321FFF7C6FF03B00C
:104FE0005DF804FB07B501238DF807100DF10702EA
:104FF0009421FFF7BAFF03B05DF804FB07B5012366
:105000008DF807100DF107029521FFF7AEFF03B0F1
:105010005DF804FB07B501238DF807100DF10702B9
:105020009621FFF7A2FF03B05DF804FB07B501234B
:105030008DF807100DF10702A421FFF796FF03B0CA
:105040005DF804FB0A460123A821FFF787BF4FF054
:1050500080624FF480334FF48071C0E900234FF435
:1050600080524FF48063C0E902324FF48043C0E9BC
:10507000043283614FF48023C0E907130020704796
:1050800070B59AB00D4606460021144606A8502277
:1050900017F0A8F91422002101A817F0A3F92DB9DF
:1050A000012C03D14FF0FF301AB070BD002306A9C8
:1050B00030469D420C9311930CBF01220422012C17
:1050C0000193099214BF1A4608229D420B920CBF0D
:1050D0001A4610220A9240F2FA5208BF052208929C
:1050E0000CBF1A464FF48062012C0D9214BF1A4671
:1050F0004FF400629D420F924FF440520E920CBF4B
:105100004FF080724FF08062012C149214BF1A4647
:105110004FF000629D4216920CBF1A460522012CE8
:1051200017920CBF02220122159214BF1A464FF0AB
:105130000052CDE918230122CDE90633CDE902233F
:1051400010224FF48003CDE9043241F2883202F09C
:10515000D0FB0028A6D141F2883201A9304602F0E6
:1051600005FD003818BF012040429DE770B596B09C
:105170000C46064615460021502202A817F032F9C7
:105180000023012CCDE9003304D11DB94FF0FF30CD
:1051900016B070BD002301219C4207930CBF012271
:1051A0000422CDE9021318BF10230592069346D1BD
:1051B000002D0CBF0B230C23002C049302A93046B6
:1051C0000CBF4FF480734FF48063099300239D421A
:1051D0000B930D930CBF4FF400524FF440529C427E
:1051E00012930A920CBF4FF080724FF080621593B9
:1051F00010920CBF08220622CDE9132341F2883217
:1052000002F077FB0028C1D102230293D4B9002D0C
:1052100018BF12230493002341F2883202A93046BA
:10522000139302F066FB0028B0D100906946304627
:1052300002F0ECFC003818BF01204042A8E74EF60F
:105240001343B9E741F2ED23E4E710B596B0044605
:105250002822002108A817F0C5F800230122082001
:105260004FF400614FF0006CCDE902230422059257
:105270001022CDE906204EF61162204604924FF42A
:10528000806209924FF44052CDE90A214FF08062CA
:1052900002A910920622CDE912C24FF00052CDE9C8
:1052A000142341F28832CDE9003302F022FB18B119
:1052B0004FF0FF3016B010BD022341F2883202A930
:1052C000029341F2ED23CDE913002046049302F04E
:1052D00010FB0028ECD100906946204602F096FCB5
:1052E000003818BF01204042E4E770B59AB00C4680
:1052F00006460021154606A8502217F073F814221E
:10530000002101A817F06EF82CB9012D03D14FF040
:10531000FF301AB070BD002306A930469C420D93A1
:1053200011930CBF01220422012D149309920CBF8A
:1053300008221A469C4219930B920CBF1A4610225F
:105340000A9240F2F96208BF0622089241F28832BE
:10535000CDE90633CDE9173302F0CBFA0028D6D1D8
:10536000002C40F2FA530C9041F2883208BF05231A
:1053700006A9304608930CBF00234FF48063012D2B
:105380000D930CBF4FF400630023002C0F934FF4D8
:1053900040530E930CBF4FF080734FF08063012D8C
:1053A00014930CBF4FF000630023002C16930CBF26
:1053B00000230523012D17930CBF0223012315930E
:1053C0000CBF4FF000530023189302F092FA00280C
:1053D0009DD102231022039001A93046CDE901336B
:1053E0004FF48003CDE9043241F2883202F0BEFB73
:1053F000003818BF012040428BE7F0B595B00D464C
:10540000064614460021502268461F4616F0EAFF61
:105410002DB9012C03D14FF0FF3015B0F0BD0022A3
:10542000069795420B920CBF01230423012C039392
:105430000CBF08231346954205930CBF1346102357
:10544000049347F28D2308BF722302930CBF4FF4DD
:1054500080734FF48063012C07930CBF4FF40063FB
:105460001346954209934FF4405308930CBF4FF0F5
:1054700080734FF08063012C0E930CBF4FF00063DC
:105480001346CDE90022CDE91032D5B1012C14BF6D
:10549000012302230F93002341F2883269463046EC
:1054A000CDE9123302F025FA0028B4D141F2883256
:1054B0001AA9304602F0C8FA003818BF012040424D
:1054C000ABE70123E6E7F0B595B00D460646144676
:1054D0000021502268461F4616F084FF2DB9012C8A
:1054E00003D14FF0FF3015B0F0BD002269463046C1
:1054F000069795420B920CBF01230423012C0393C2
:1055000014BF13460823954205930CBF134610237E
:10551000049347F28E1308BF712302930CBF4FF41C
:1055200080734FF48063012C079314BF13464FF42C
:105530000063954209934FF4405308930CBF4FF01A
:1055400080734FF08063012C0E9314BF13464FF00D
:105550000063954210930CBF13460523012C119351
:105560000CBF022301230F9314BF13464FF00053C7
:10557000CDE90022CDE9123241F2883202F0B9F9C8
:105580000028AED141F288321A99304602F09CFAD6
:10559000003818BF01204042A5E770B594B00C4612
:1055A0000646154600215022684616F01BFF0CB92E
:1055B000012D28D00023694630469C4207930B9367
:1055C0000CBF01220422012D0E93039214BF1A4630
:1055D00008229C42139305920CBF1A461022049293
:1055E00046F2996208BF6622029241F28832CDE902
:1055F0000033CDE9113302F07CF9003818BF0120E7
:10560000404214B070BD4FF0FF30FAE770B594B06F
:105610000C460646154600215022684616F0E2FE6A
:105620000CB9012D28D00023694630469C420793CF
:105630000B930CBF01220422012D0E93039214BF81
:105640001A4608229C42139305920CBF1A46102258
:10565000049249F6661208BF9922029241F28832FA
:10566000CDE90033CDE9113302F043F9003818BF1A
:105670000120404214B070BD4FF0FF30FAE7000047
:10568000114A08B513680BB9002008BD013B13602F
:10569000002BF9D14FF480410C4801F059F90B4827
:1056A0004FF4004101F054F9094A0A48D2F8F430A5
:1056B00023F08003C2F8F43001F0E3FB0028E3D0CC
:1056C0006FF00700E1E700BF8418002400140258BF
:1056D00000440258AC7200240023012210B541603E
:1056E00004460362C0E90232C0E90433C0E906336C
:1056F00001F075FB014608B1012010BD204601F004
:1057000050FD01460028F7D1204601F070FD003819
:1057100018BF0120F1E70000A34BA4482DE9F04F8A
:10572000036093B0A24B1A68009201321A60009B8A
:10573000002B40F0C98001F02FFD002840F0C4800C
:105740009C4D4FF4804201210426D5F8E0309A4860
:1057500043F02003C5F8E030D5F8E03003F0200333
:105760000A930A9BD5F8E03043F02003C5F8E030F7
:10577000D5F8E030119603F020030B930B9B122316
:10578000CDE90D230223CDE90F130DA900F0FAFF97
:105790004FF400430DA988480D93119600F0F2FFD5
:1057A000D5F8F43043F08003C5F8F430D5F8F43080
:1057B00003F080030C930C9BD5F89C3043F08003DE
:1057C000C5F89C30D5F89C3023F08003C5F89C3098
:1057D00003F0C8F9002871D0784B4FF0100EDFF8B5
:1057E000E4914FF0140A03EB5003B3FBF0F000EB2D
:1057F000400240F6F6130146C2F1FF22A3EB8003FC
:1058000002F57F0223EAE373E23202936C4B22EA51
:10581000E27B009A1B6890468C46002640F2793461
:1058200001960136A4455AD900252F46AB4552D8DA
:10583000029CAC424FD396454DD00AFB03F801338E
:10584000019C09EB080E7F2B49F80820CEE901479F
:105850003ED95B4A13605A4B4FEA400B594A002627
:105860001B684FF0FF38069342F2107303930BF15D
:1058700032030993ABF511530A3B0293069B9E42F8
:1058800038D1B8F17F0F19D8142303FB08F84D4B1A
:1058900003EB080253F80830147C44EA037453689D
:1058A0001B0503F470031C4393681B0403F470236B
:1058B0001C43D3681B029BB22343009300993B48CF
:1058C000FFF70AFF00286BD1002013B0BDE8F08F6E
:1058D00096464FF0010801370D44102FA6D1102E27
:1058E0008C449BD101320144102A95D1B8F1000FAC
:1058F000AFD1B0E713686FF001040999002703FBEB
:1059000000031944049103EB0B016143029C0191D4
:105910001C440499089441F25C240797A1F13205D4
:105920000137A14231D9B0EB950F2ED2019C4FF037
:10593000000CDDF810E004F51059089C09F1180975
:10594000651805F2836A41F24704CDF814C00CF1E2
:10595000010CA24512D8BEF57A6F0FD370450DD257
:1059600035EA250A28BFCA46039C544506D9079C38
:10597000B046CDF80CA01461059CD460BCF5807FC6
:10598000A9EB03091D449E44DBD1019CB7F5807F40
:105990001944A4EB03040194BDD1013614326DE720
:1059A0006FF0070091E700BF001C0058AC720024A4
:1059B00084180024004402580014025800CA9A3B7C
:1059C00088220024881800241FB54FF47A740092AE
:1059D0000A4601460848CDE90134012301F06AFA7C
:1059E00040B1054801F0DBFB04280CBF6FF06500F7
:1059F0006FF0030004B010BDAC7200241FB54FF46B
:105A00007A7400920A4601460848CDE90134012320
:105A100001F006FB40B1054801F0C1FB04280CBFB2
:105A20006FF065006FF0030004B010BDAC7200248D
:105A300000F0D0BC30B5214C85B02148A278617807
:105A4000FFF753FC18B16FF0040005B030BD03231D
:105A50001B4800934FF44073A2786178FFF7CDFCA8
:105A60000028F0D1A27861781548FFF73EFC034684
:105A70000028E8D1012512480095A2786178FFF747
:105A8000BCFC04460028DED1282000F0A9FC2246F8
:105A900029460B48FFF7F4FA0028D4D103AB02469D
:105AA0002946009303460648FFF70DFD0028CAD19A
:105AB0009DF80C30AB42C8D0C5E700BF8C22002453
:105AC0009422002430B5274D85B0274CAA786978F8
:105AD0002046FFF70AFC18B16FF0040005B030BD96
